:020000040800F2
:1000000000500020010D0008A10D0008AD0D0008F2
:10001000B50D0008BD0D0008C50D0008000000006A
:10002000000000000000000000000000CD0D0008EE
:10003000D90D000800000000E50D0008F10D0008D2
:10004000490D00084B0D00084D0D00084F0D00082C
:10005000510D0008530D0008550D0008570D0008FC
:10006000590D00085B0D00085D0D00082D02000809
:10007000610D0008630D0008650D0008670D00089C
:10008000690D00086B0D00086D0D00086F0D00086C
:10009000FD0D0008730D0008750D0008770D0008B0
:1000A000790D00087B0D00087D0D00087F0D00080C
:1000B000810D0008830D0008850D0008870D0008DC
:1000C000890D00088B0D00088D0D00088F0D0008AC
:1000D000910D0008930D0008950D0008970D00087C
:1000E000990D00089B0D0008090E000810B5054C7D
:1000F000237833B9044B13B10448AFF300800123D4
:10010000237010BD64050020000000003076000858
:1001100008B5064B1BB106480649AFF300800648F8
:10012000036813B1054B03B1984708BD00000000F8
:1001300030760008680500206005002000000000FF
:10014000154B002B08BF134B9D46A3F5803A0021A9
:100150008B460F461348144A121A07F02BF90F4B1F
:10016000002B00D098470E4B002B00D09847002062
:10017000002104460D4600200C490022002307F010
:1001800073F807F0EFF82046294600F003FD07F06A
:10019000C3F800BF0000080000500020000000006D
:1001A0000000000064050020620A00203973000886
:1001B00080B400AF4FF00803C4F2020342F2A00281
:1001C0001A604FF00803C4F2020340F20402C2F2C4
:1001D00000021268002A05D040F20402C2F20002B6
:1001E000126801E04FF001025A604FF00803C4F2B8
:1001F000020342F24D42C4F201029A604FF008033A
:10020000C4F2020340F6F412C2F20002DA604FF0C8
:100210000803C4F202034FF00802C4F2020212689B
:1002200042F003021A60BD4680BC704780B582B0C0
:1002300000AF4FF000037B604FF000037B6025E0D0
:1002400040F28053C2F20003186840F28853C2F2B1
:1002500000031A6840F6F413C2F2000379685B18D1
:100260001B78D9B240F2EC53C2F200034FEA80107F
:1002700080181B18197002F1010240F28853C2F273
:1002800000031A607B6803F101037B6040F2040302
:10029000C2F200031B687A689A42D1D340F28853B5
:1002A000C2F200031B683F2B20D940F28853C2F2F0
:1002B00000034FF000021A6040F28053C2F20003C4
:1002C0001B6803F1010240F28053C2F200031A607E
:1002D00040F28053C2F200031B680F2B06D940F294
:1002E0008053C2F200034FF000021A604FF0020088
:1002F00002F0A2FE07F10807BD4680BD80B582B0BE
:1003000000AF4FF00B033B714FF002037B714FF0D6
:100310000003BB714FF00103FB7107F104031846A2
:1003200001F0C8FD4FF001004FF0010103F0EEFEB7
:10033000FFF73EFF4FF41053C4F201034FF4105285
:10034000C4F20102926842F480729A6007F10807D1
:10035000BD4680BD80B584B000AF4FF00003BB60E8
:100360004FF000037B604FF00800C4F202004FF032
:10037000000102F08FFD4FF00003FB601BE040F234
:100380000803C2F20003FA689B181B78012B0ED1F8
:10039000BA6813464FEA83039B18FA6802FA03F31C
:1003A0007A6813437B60BB6803F10103BB60FB68A1
:1003B00003F10103FB60FB68032BE0D940F2040367
:1003C000C2F20003BA681A60BB68002B10D04FF469
:1003D0001053C4F20103BA6802F1FF324FEA02522D
:1003E000DA624FF41053C4F201037A685A630DE0E5
:1003F0004FF41053C4F201034FF00002DA624FF4DD
:100400001053C4F201034FF000025A63FFF776FF66
:1004100007F11007BD4680BD80B582B000AF4FF038
:100420000C004FF0010103F09BFE4FF440733B8042
:100430004FF01003FB704FF00203BB703B464FF4CC
:100440004060C4F20100194603F016F84FF00F03A4
:100450003B804FF00003FB703B464FF40060C4F25A
:100460000100194603F008F84FF400704FF0010145
:1004700003F076FE4FF41053C4F201034FF4105210
:10048000C4F20102926842F004029A6000BF4FF485
:100490001053C4F201039B6803F00403002BF6D051
:1004A0004FF41053C4F201034FF41052C4F201028E
:1004B000126942F45B6242F006021A614FF4105373
:1004C000C4F201034FF41052C4F20102526842F424
:1004D00080725A604FF41053C4F201034FF410526B
:1004E000C4F20102926842F4006242F002029A6091
:1004F000FFF730FF4FF41053C4F201034FF41052D2
:10050000C4F20102926842F001029A604FF00003C7
:100510007B6003E07B6803F101037B607A6840F253
:10052000E7339A42F6DD4FF41053C4F201034FF45F
:100530001052C4F20102926842F001029A6007F17F
:100540000807BD4680BD00BF80B582B000AF4FF048
:1005500009004FF0010103F003FE4FF006004FF0D9
:10056000010103F027FE4FF06003BB804FF018033A
:10057000FB714FF00303BB7107F104034FF44060BC
:10058000C4F20100194602F077FF4FF40060C0F298
:100590001A004FF0010103F053F94FF48063C4F2E5
:1005A00000034FF48062C4F20002128892B242F05B
:1005B000800292B21A804FF48063C4F200034FF4B9
:1005C0008062C4F20002128B92B242F4006292B2D4
:1005D0001A834FF48063C4F200034FF48062C4F2C4
:1005E0000002128B92B242F4C04292B21A834FF4CC
:1005F0008063C4F200034FF002021A854FF4806357
:10060000C4F200034FF6FF129A854FF48063C4F2E0
:10061000000343F290321A874FF48063C4F2000360
:100620004FF48062C4F20002128C92B242F01002C7
:1006300092B21A844FF48063C4F200034FF48062D4
:10064000C4F20002128892B242F0010292B21A8001
:100650004FF40063C4F200034FF40062C4F20002DE
:10066000128892B242F0800292B21A804FF4006374
:10067000C4F200034FF40062C4F20002128B92B283
:1006800042F0080292B21A834FF40063C4F20003EE
:100690004FF40062C4F20002128B92B242F0600288
:1006A00092B21A834FF40063C4F200034FF00202C7
:1006B0001A854FF40063C4F200034FF6FF129A85C7
:1006C0004FF40063C4F2000344F6E8629A864FF4E4
:1006D0000063C4F200034FF40062C4F20002128C03
:1006E00092B242F0010292B21A844FF40063C4F253
:1006F00000034FF40062C4F20002128892B242F08A
:10070000010292B21A8007F10807BD4680BD00BF02
:1007100080B582B000AF4FF010004FF0010103F040
:100720001FFD4FF08003BB804FF00303BB714FF000
:100730001403FB7107F104034FF48050C4F201006D
:10074000194602F099FE4FF4802002F0E1FD40F6D8
:10075000EC13C2F200034FF480221A6040F6EC134F
:10076000C2F200034FF008025A7140F6EC13C2F2D5
:1007700000034FF001029A7140F6EC10C2F2000043
:1007800002F0A0FCFFF748FEFFF7DEFE07F10807C6
:10079000BD4680BD80B500AF4FF0000003F036FBD2
:1007A0004FF400004FF0010103F004FD80BD00BFD5
:1007B00080B400AF40F29C53C2F200034FF003023A
:1007C0001A60BD4680BC704780B582B000AF40F66D
:1007D0003823C2F200037B607B689B7A002B07D032
:1007E00040F29C53C2F200034FF005021A6006E08B
:1007F00040F29C53C2F200034FF001021A6000F075
:100800000BFB07F10807BD4680BD00BF80B582B075
:1008100000AF4FF4A06001F039FB4FF014033B71BF
:100820004FF002037B714FF00003BB714FF00103E7
:10083000FB7107F10403184601F03CFB4FF02A035B
:100840003B714FF001037B7107F10403184601F07F
:1008500031FB07F10807BD4680BD00BF80B582B0FF
:1008600000AF0346FB71FB79002B08D04FF480509A
:10087000C4F201004FF0800102F052FF07E04FF494
:100880008050C4F201004FF0800102F03BFF07F1FD
:100890000807BD4680BD00BF80B584B000AF4FF2F1
:1008A000E873C1F6FF731B68FB604FF2EC73C1F68F
:1008B000FF731B68BB604FF2F073C1F6FF731B68D8
:1008C0007B60FA687B68D318FB60FB68002B0BD059
:1008D000F86807494FF0080200F00EF8B8680549BB
:1008E0004FF0040200F008F807F11007BD4680BD84
:1008F0002A0000203A00002080B487B000AFF860E2
:10090000B9601346FB714FF00003FB754FF0000315
:10091000FB7531E0FB684FEA1373092B0DD8FB7DA3
:100920004FEA4303BA68D318FA684FEA1272D2B298
:1009300002F13002D2B21A700CE0FB7D4FEA4303A1
:10094000BA68D318FA684FEA1272D2B202F13702CB
:10095000D2B21A70FB684FEA0313FB60FB7D4FEACB
:10096000430303F10103BA68D3184FF000021A7071
:10097000FB7D03F10103FB75FA7DFB799A42C9D334
:1009800007F11C07BD4680BC704700BF80B582B030
:1009900000AF78600B46FB704FF0010005F03CFBA8
:1009A000034603F48043002B11D0FB789BB2786898
:1009B0004FF0C0011A4605F01FFAFB789BB24FF0CA
:1009C00001004FF002011A4606F008FA10E0FB7829
:1009D0009BB278684FF480711A4605F00DFAFB78E7
:1009E0009BB24FF001004FF002011A4606F05EFA8A
:1009F0004FF001004FF0020106F04EFB4FF00100F6
:100A000005F02EFC40F20C03C2F200034FF000028E
:100A10001A604FF00003184607F10807BD4680BD75
:100A200080B500AF40F21003C2F200034FF00002A5
:100A30001A604FF0030005F03FFC4FF00103184629
:100A400080BD00BFB0B592B000AF4FF41053C4F2F8
:100A500001034FF41052C4F20102926822F4807232
:100A60009A604FF001033B714FF000037B714FF030
:100A700001033B7107F1040303F1030247F25C53E6
:100A8000C0F6000315461C460FCC28606960AA60BA
:100A9000EB602068286100BF40F20C03C2F2000343
:100AA0001B68012BF8D14FF000037B6403E07B6CE3
:100AB00003F101037B647A6C42F20F739A42F6DD14
:100AC00007F1040318464FF04001FFF75FFF4FF4B2
:100AD0001053C4F201034FF41052C4F201029268A1
:100AE00042F480729A6007F14807BD46B0BD00BF6E
:100AF00080B400AF40F2AC53C2F200031B78DBB20B
:100B0000412B41D140F2AC53C2F200035B78DBB21F
:100B1000542B39D140F2AC53C2F200039B78DBB2C4
:100B20004C2B34D140F2AC53C2F20003DB78DBB281
:100B3000312B2CD140F2AC53C2F200031B79DBB253
:100B4000312B0CD14FF44063C4F201034FF44062E7
:100B5000C4F20102D26822F40072DA6016E040F2B8
:100B6000AC53C2F200031B79DBB2302B0ED14FF431
:100B70004063C4F201034FF44062C4F20102D26840
:100B800042F40072DA6001E000BF00E000BFBD4641
:100B900080BC704780B582B000AF4FF000037B602F
:100BA000FFF7B6FDFFF7F6FDFFF730FE04F040FE5D
:100BB0004FF44063C4F201034FF44062C4F20102F7
:100BC000D26882F48072DA604FF000037B6000E04C
:100BD00000BF40F29C53C2F200031B68052B6DD18D
:100BE00040F6FC13C2F200031B68002B28D0FFF76D
:100BF0007FFF40F2AC53C2F200034FF0A50283F82E
:100C00003F204FF000033B600EE03B684FEA830259
:100C100040F2AC53C2F20003D3184FF000021A6046
:100C20003B6803F101033B603B680F2BEDD9FFF7F5
:100C3000F7FE40F6FC13C2F200034FF000021A6008
:100C400040F20C03C2F200031B68012B36D140F2C4
:100C50008453C2F200031A6840F28053C2F20003C8
:100C60001B689A422AD040F28453C2F200031B68E8
:100C70004FEA831240F2EC53C2F20003D318184635
:100C80004FF04001FFF782FE40F28453C2F20003AE
:100C90001B6803F1010240F28453C2F200031A60A0
:100CA00040F28453C2F200031B680F2B06D940F2B6
:100CB0008453C2F200034FF000021A607A684FF6C4
:100CC000FF73C0F203039A4294BF00230123DBB2F7
:100CD0007A6802F101027A60002B3FF479AF4FF499
:100CE0004063C4F201034FF44062C4F20102D268CF
:100CF00082F48072DA604FF000037B6068E700BF27
:100D00000749084A084B9A42BEBF51F8040B42F803
:100D1000040BFFF7F8BF054880470548004700006F
:100D20003C7600080000002060050020190E000835
:100D300041010008FEE7FEE7FEE7FEE7FEE7FEE70B
:100D4000FEE7FEE7FEE7FEE7FEE7FEE7FEE7FEE77B
:100D5000FEE7FEE7FEE7FEE7FEE7FEE7FEE7FEE76B
:100D6000FEE7FEE7FEE7FEE7FEE7FEE7FEE7FEE75B
:100D7000FEE7FEE7FEE7FEE7FEE7FEE7FEE7FEE74B
:100D8000FEE7FEE7FEE7FEE7FEE7FEE7FEE7FEE73B
:100D9000FEE7FEE7FEE7FEE7FEE7FEE7FEE700BF51
:100DA00080B400AFBD4680BC704700BF80B400AFC8
:100DB000FEE700BF80B400AFFEE700BF80B400AF25
:100DC000FEE700BF80B400AFFEE700BF80B400AF15
:100DD000BD4680BC704700BF80B400AFBD4680BC3C
:100DE000704700BF80B400AFBD4680BC704700BFF5
:100DF00080B400AFBD4680BC704700BF80B500AF77
:100E000000F00EFA80BD00BF80B500AF4FF4802027
:100E100002F07EFA80BD00BF80B500AF4FF4805372
:100E2000C4F202034FF48052C4F20202126842F08C
:100E300001021A604FF48052C4F202024FF4805350
:100E4000C4F2020359684FF00003CFF6FF030B40D2
:100E500053604FF48053C4F202034FF48052C4F243
:100E60000202126822F0847222F480321A604FF477
:100E70008053C4F202034FF48052C4F2020212689B
:100E800022F480221A604FF48053C4F202034FF41C
:100E90008052C4F20202526822F4FE025A604FF4F9
:100EA0008053C4F202034FF41F029A6000F0ACF8C2
:100EB0004FF46D43CEF200034FF000629A6080BDA4
:100EC00080B485B000AF4FF00003FB604FF000032B
:100ED000BB604FF000037B604FF48053C4F2020309
:100EE0005B6803F00C03FB60FB68042B0DD0082B40
:100EF00015D0002B5CD140F21403C2F200034FF472
:100F00009052C0F27A021A605CE040F21403C2F21E
:100F100000034FF49052C0F27A021A6052E04FF48C
:100F20008053C4F202035B6803F47013BB604FF498
:100F30008053C4F202035B6803F480337B60BB68B8
:100F40004FEA934303F10203BB607B68002B0CD193
:100F5000BA684FF41063C0F23D0303FB02F240F2A3
:100F60001403C2F200031A602CE04FF48053C4F261
:100F700002035B6803F40033002B0CD0BA684FF413
:100F80001063C0F23D0303FB02F240F21403C2F20D
:100F900000031A6016E0BA684FF49053C0F27A0367
:100FA00003FB02F240F21403C2F200031A6009E0EC
:100FB00040F21403C2F200034FF49052C0F27A02DE
:100FC0001A6000BF4FF48053C4F202035B6803F061
:100FD000F0034FEA131240F21803C2F200039B5CC5
:100FE000DBB2FB6040F21403C2F200031A68FB6834
:100FF00022FA03F240F21403C2F200031A6007F16E
:101000001407BD4680BC704780B500AF00F002F801
:1010100080BD00BF80B483B000AF4FF000037B60A1
:101020004FF000033B604FF48053C4F202034FF4CF
:101030008052C4F20202126842F480321A604FF405
:101040008053C4F202031B6803F400333B607B68E7
:1010500003F101037B603B68002B03D17B68B3F590
:10106000A06FECD14FF48053C4F202031B6803F469
:101070000033002B03D04FF001033B6002E04FF040
:1010800000033B603B68012B40F094804FF4005319
:10109000C4F202034FF40052C4F20202126842F09A
:1010A00010021A604FF40053C4F202034FF40052CE
:1010B000C4F20202126822F003021A604FF40053D5
:1010C000C4F202034FF40052C4F20202126842F06A
:1010D00002021A604FF48053C4F202034FF48052AC
:1010E000C4F2020252685A604FF48053C4F2020301
:1010F0004FF48052C4F2020252685A604FF4805397
:10110000C4F202034FF48052C4F20202526842F465
:1011100080625A604FF48053C4F202034FF480524D
:10112000C4F20202526822F47C125A604FF48053D7
:10113000C4F202034FF48052C4F20202526842F435
:10114000E8125A604FF48053C4F202034FF4805205
:10115000C4F20202126842F080721A6000BF4FF4BB
:101160008053C4F202031B6803F00073002BF6D017
:101170004FF48053C4F202034FF48052C4F20202CF
:10118000526822F003025A604FF48053C4F2020303
:101190004FF48052C4F20202526842F002025A60D6
:1011A00000BF4FF48053C4F202035B6803F00C03EA
:1011B000082BF6D107F10C07BD4680BC704700BF75
:1011C00080B400AF40F20C03C2F200034FF0010202
:1011D0001A60BD4680BC704780B500AF40F2100376
:1011E000C2F200034FF001021A604FF0030005F055
:1011F00047FC03461A4640F6FC13C2F200031A608D
:1012000040F6FC13C2F200031B689BB240F2AC50E4
:10121000C2F200004FF4A8711A4604F031FE80BDFE
:1012200080B58AB000AF4FF000037B6245F64443BF
:10123000C4F200031B689AB240F60023C2F2000316
:101240001A8040F60023C2F200031B889BB203F40D
:10125000007240F65C23C2F200031B881340002B8F
:1012600014D045F64443C4F200034FF6FF521A600F
:1012700040F28C53C2F200031B78DBB203F101038E
:10128000DAB240F28C53C2F200031A7040F6002327
:10129000C2F200031B889BB203F4004240F65C23B9
:1012A000C2F200031B881340002B01D004F0EEFAB9
:1012B00040F60023C2F200031B889BB203F4806255
:1012C00040F65C23C2F200031B881340002B0CD0B5
:1012D00045F64443C4F200034FF6FF321A6040F271
:1012E0008803C2F200035B68984740F60023C2F20D
:1012F00000031B889BB203F4005240F65C23C2F249
:1013000000031B881340002B06D045F64443C4F26B
:1013100000034DF6FF721A6040F60023C2F200038C
:101320001B889BB203F4805240F65C23C2F2000398
:101330001B881340002B0AD045F64443C4F2000337
:101340004EF6FF721A604FF0000000F0BDFC40F650
:101350000023C2F200031B889BB203F4006240F634
:101360005C23C2F200031B881340002B15D040F20F
:101370000C13C2F200031B78DBB2002B02D000F08A
:1013800083FB03E04FF0020000F09EFC45F644436F
:10139000C4F200034FF2FF721A6040F60023C2F25B
:1013A00000031B889BB203F4807240F65C23C2F2F8
:1013B00000031B881340002B00F0C88045F644430F
:1013C000C4F200034FF6FF621A6045F64843C4F2C8
:1013D00000031B689BB21BB2002B80F2AC8040F272
:1013E0009053C2F200031B6803F1010240F29053D4
:1013F000C2F200031A6040F29053C2F200031B686D
:10140000032B40F29F8045F64043C4F200031B6863
:101410009BB203F00803002B40F0948045F6404354
:10142000C4F200031B689BB21A4640F29453C2F206
:1014300000031A604FF000037B6215E07B6A4FEAFD
:10144000830303F1804303F5B8431B689BB21A463C
:101450007B6A4FEA830307F12801CB1843F8242C59
:101460007B6A03F101037B627B6A072BE6D940F2BA
:101470009453C2F200031B6843F0010240F29453FC
:10148000C2F200031A6045F64043C4F2000340F282
:101490009452C2F20002126892B21A6040F294535F
:1014A000C2F200031B6823F0010240F29453C2F21F
:1014B00000031A6045F64043C4F2000340F2945220
:1014C000C2F20002126892B21A6000BF45F64443AD
:1014D000C4F200031B689BB203F48063002BF5D0B9
:1014E00045F64443C4F200034FF6FF321A604FF052
:1014F00000037B6214E07B6A4FEA830303F18043BD
:1015000003F5B8437A6A4FEA820207F128018A1884
:1015100052F8242C92B21A607B6A03F101037B62B9
:101520007B6A072BE7D940F29053C2F200034FF0D9
:1015300000021A6006E040F29053C2F200034FF03E
:1015400000021A604FF0070000F0BEFB07F1280709
:10155000BD4680BD80B500AFFFF79EF940F6582329
:10156000C2F200031B684FF000029A7200F02CFADE
:1015700005F00AFE40F29C53C2F200034FF0000255
:101580001A6080BD80B500AF40F65823C2F2000358
:101590001B684FF000029A7240F65823C2F2000313
:1015A0001A6847F28453C0F60003DB79537240F6A1
:1015B0005823C2F200031B684FF00002DA724FF0AA
:1015C000000004F0F3FC4FF000004FF4007104F051
:1015D00037FD4FF000004FF0100104F06FFD4FF0A9
:1015E00000004FF0400105F01FF94FF000004FF0F0
:1015F000800105F0F5F84FF0000004F0E1FE40F244
:101600008803C2F2000393F82C304FF00000194613
:1016100005F0C6F94FF0000004F04EFE4FF0010057
:101620004FF0000104F00CFD4FF0010004F020FF2A
:101630004FF001004FF0C0014FF4807205F044FA02
:1016400040F28803C2F2000393F82C304FF00100FF
:101650004FF002011A4605F0FFFA4FF0010005F0C5
:101660004FF84FF0010005F01BF84FF0010004F0B7
:10167000CFFF4FF001004FF0200104F01FFD4FF0AD
:1016800001004FF0000104F053FD4FF002004FF451
:10169000C06104F0D5FC4FF002004FF4A07105F0DA
:1016A0009FF84FF002004FF0000104F041FD4FF0B1
:1016B00002004FF0200104F001FD4FF003004FF055
:1016C000000104F0BDFC4FF003004FF4A87105F0D9
:1016D000ABF84FF003004FF0400105F061F94FF017
:1016E00003004FF4405104F023FD4FF003004FF08E
:1016F000000104F0E3FC4FF0000004F04FF840F26A
:101700009C53C2F200034FF001021A6080BD00BF7B
:1017100080B483B000AF40F63823C2F200037B6090
:101720007B689B7A002B06D040F29C53C2F20003E8
:101730004FF005021A6007F10C07BD4680BC7047E8
:1017400080B400AF40F29C53C2F200034FF0040299
:101750001A60BD4680BC704780B400AF40F2985319
:10176000C2F200031B78202B06D140F29853C2F23C
:1017700000034FF000021A70BD4680BC704700BFE6
:1017800080B400AFBD4680BC704700BF80B584B058
:1017900000AF0346FB714FF00003FB60FB79212B88
:1017A0000FD140F65823C2F200031B681B7803F0E8
:1017B0007F03212B1ED141F65113C0F60003FB60BD
:1017C00018E0FB79202B15D140F65823C2F2000314
:1017D0001B681B7803F07F03212B04D141F68D1386
:1017E000C0F60003FB6040F29853C2F200034FF0D2
:1017F00020021A70FB68002B02D14FF0020314E0A4
:1018000040F65823C2F200031B68FA689A6140F65A
:101810005823C2F200031B684FF000025A82FB6893
:101820004FF0000098474FF00003184607F11007EB
:10183000BD4680BD80B483B000AF0346FB7140F667
:101840005823C2F200031B681B7803F07F03212B8F
:101850000BD1FB79022B02D14FF0000307E0FB799B
:10186000222B02D14FF0000301E04FF00203184693
:1018700007F10C07BD4680BC704700BF80B582B041
:1018800000AF0346FB80FB88184640F2DC01C2F241
:10189000000103F067F90346184607F10807BD4643
:1018A00080BD00BF80B582B000AF0346FB80FB88DF
:1018B000184640F2E401C2F2000103F053F9034676
:1018C000184607F10807BD4680BD00BF80B584B04B
:1018D00000AF0346FB8040F65823C2F200031B68AA
:1018E000DB78FB73FB7B042B02D94FF000030DE088
:1018F000FB7B4FEAC30240F2EC03C2F20003D318B1
:10190000FA881046194603F02DF90346184607F1E8
:101910001007BD4680BD00BF80B483B000AF024653
:101920000B46FA71BB71BB79002B02D04FF002035A
:1019300007E0FB79012B02D94FF0020301E04FF0E1
:101940000003184607F10C07BD4680BC704700BF76
:1019500080B483B000AF0346FB80FB88002B0AD124
:1019600040F65823C2F200031B684FF008021A82A7
:101970004FF0000303E040F27C03C2F2000318467C
:1019800007F10C07BD4680BC704700BF80B483B030
:1019900000AF0346FB80FB88002B0AD140F658239A
:1019A000C2F200031B684FF008021A824FF00003D6
:1019B00003E040F27C03C2F20003184607F10C0773
:1019C000BD4680BC704700BF80B582B000AF4FF00D
:1019D0000100FEF743FF4FF00103FB8045F6404353
:1019E000C4F20003FA881A6040F65C23C2F20003D6
:1019F0004FF000021A8045F64043C4F2000340F65F
:101A00005C22C2F2000212881A6045F64443C4F216
:101A100000034FF000021A6040F65C23C2F200039C
:101A20004FF4E0521A8045F64043C4F2000340F6FA
:101A30005C22C2F2000212881A604FF000031846BE
:101A400007F10807BD4680BD80B500AF45F64043AD
:101A5000C4F200034FF001021A6045F64443C4F299
:101A600000034FF000021A604FF00000FEF7F6FE90
:101A700045F64043C4F200034FF003021A604FF0F2
:101A80000003184680BD00BF80B485B000AF4FF0A2
:101A90000003FB604FF00003BB604FF000033B60AE
:101AA00045F64043C4F200031B68FB804FF000037F
:101AB000FB6014E0FB684FEA830303F1804303F506
:101AC000B8431B689BB2194640F60823C2F20003D4
:101AD000FA6843F82210FB6803F10103FB60FB681E
:101AE000072BE7D9FB8843F48063FB8045F640432E
:101AF000C4F20003FA881A60FB8843F00103FB80FC
:101B000045F64043C4F20003FA881A60FB8823F0CC
:101B10000103FB8045F64043C4F20003FA881A60D3
:101B200000BF45F64443C4F200031B689BB203F4B4
:101B30008063002BF5D045F64443C4F200034FF612
:101B4000FF321A604FF00003FB6013E0FB684FEABE
:101B5000830303F1804303F5B84340F60822C2F241
:101B60000002F96852F8212092B21A60FB6803F172
:101B70000103FB60FB68072BE8D9FB8843F00803EF
:101B8000FB8045F64043C4F20003FA881A6045F62C
:101B90004043C4F200031B68FB80FB8843F004034E
:101BA000FB8045F64043C4F20003FA881A604FF404
:101BB000E043C4F200031B683B604FF4E043C4F20F
:101BC00000031B68BB60BB6823F00303BB60BB68FA
:101BD00043F00103BB604FF4E043C4F20003BA6872
:101BE0001A604FF46D43CEF200034FF46D42CEF213
:101BF0000002126942F004021A6145F64443C4F23D
:101C000000031B689BB203F48053002B0DD130BF3F
:101C10004FF46D43CEF200034FF46D42CEF200025A
:101C2000126922F004021A6128E045F64443C4F226
:101C300000034EF6FF721A6045F64043C4F20003FB
:101C40001B68FB80FB8823F00803FB8045F64043BC
:101C5000C4F20003FA881A604FF4E043C4F20003B0
:101C60003A681A604FF46D43CEF200034FF46D42B0
:101C7000CEF20002126922F004021A6107F1140781
:101C8000BD4680BC704700BF80B582B000AF45F64E
:101C90004043C4F200031B68FB80FB8823F004036D
:101CA000FB8045F64043C4F20003FA881A60FEF751
:101CB0008BFD45F64043C4F200034FF43F421A60E7
:101CC00007F10807BD4680BD80B584B000AF03466C
:101CD000FB71FB79072B05D040F60423C2F2000309
:101CE000FA791A7040F60423C2F200031B78DBB2C3
:101CF000052B00F2BA8001A252F823F0151D00084E
:101D0000471D0008691D0008871D0008C31D000845
:101D1000011E000840F2A053C2F200031B68002B12
:101D200009D1FFF7B1FF40F60423C2F200034FF0E0
:101D300006021A70A5E040F60423C2F200034FF039
:101D400005021A709DE0FFF79FFF40F60423C2F2E0
:101D500000034FF004021A7040F2A053C2F20003D5
:101D60004FF001021A608CE040F60423C2F2000337
:101D70004FF002025A7040F60423C2F200034FF003
:101D800003021A707DE040F60423C2F200035B7880
:101D9000DBB203F1FF33DAB240F60423C2F20003F0
:101DA0005A7040F60423C2F200035B78DBB2002BCA
:101DB00064D140F60423C2F200034FF004021A700B
:101DC0005CE045F64043C4F200031B68FB81FB89DD
:101DD00043F01003FB8145F64043C4F20003FA8947
:101DE0001A6040F60423C2F200034FF005021A7095
:101DF00040F60423C2F200034FF00A025A7040E09A
:101E000040F60423C2F200035B78DBB203F1FF3338
:101E1000DAB240F60423C2F200035A7040F60423FB
:101E2000C2F200035B78DBB2002B29D145F64043B8
:101E3000C4F200031B68FB81FB8923F01003FB81C4
:101E400045F64043C4F20003FA891A6040F60423C1
:101E5000C2F200034FF006021A7040F2A053C2F221
:101E600000034FF000021A600AE040F60423C2F2B9
:101E700000034FF006021A7000BF02E000BF00E04E
:101E800000BF07F11007BD4680BD00BF80B483B01E
:101E900000AF78604FF46D43CEF200037A6842F0F1
:101EA000BF6242F40032DA6007F10C07BD4680BC25
:101EB000704700BF80B487B000AF78604FF0000378
:101EC0007B614FF000033B614FF00F03FB607B68C9
:101ED000DB78002B47D04FF46D43CEF20003DB6874
:101EE0006FEA030303F4E0634FEA13237B617B692A
:101EF000C3F104033B617B69FA6822FA03F3FB60D8
:101F00007B685B781A463B6902FA03F37B617B6866
:101F10009B781A46FB6813407A6913437B617B699F
:101F20004FEA03137B614FF46143CEF200037A68FA
:101F3000127811467A69D2B25B1883F800234FF405
:101F40006143CEF200037A6812784FEA5212D2B29D
:101F50007968097801F01F014FF0010000FA01F1E2
:101F600043F8221014E04FF46143CEF200037A6884
:101F700012784FEA5212D2B27968097801F01F0143
:101F80004FF0010000FA01F102F1200243F82210A3
:101F900007F11C07BD4680BC704700BF80B483B00A
:101FA00000AF786039604FF46D43CEF200033A68B9
:101FB00022F0604222F07F0279680A439A6007F1BA
:101FC0000C07BD4680BC704780B483B000AF0246AA
:101FD0000B46FA71BB71BB79002B0CD04FF46D43EB
:101FE000CEF200034FF46D42CEF200021169FA798D
:101FF0000A431A610DE04FF46D43CEF200034FF433
:102000006D42CEF200021169FA796FEA02020A40CB
:102010001A6107F10C07BD4680BC704780B483B0DD
:1020200000AF78607B68042B0CD14EF21003CEF227
:1020300000034EF21002CEF20002126842F00402D7
:102040001A600BE04EF21003CEF200034EF21002C3
:10205000CEF20002126822F004021A6007F10C07A7
:10206000BD4680BC704700BF80B582B000AF7860CD
:102070007A684FF41053C4F201039A420CD14FF422
:1020800000704FF0010102F0BFF84FF400704FF004
:10209000000102F0B9F826E07A684FF42053C4F248
:1020A00001039A420CD14FF480604FF0010102F01D
:1020B000ABF84FF480604FF0000102F0A5F812E099
:1020C0007A684FF47053C4F201039A420BD14FF473
:1020D00000404FF0010102F097F84FF400404FF03C
:1020E000000102F091F807F10807BD4680BD00BF6E
:1020F00080B485B000AF786039604FF00003FB60BA
:102100004FF00003FB727B685B68FB60FB6823F4A5
:10211000702323F48073FB603B681A683B681B796B
:102120004FEA03231343FA681343FB607B68FA68A2
:102130005A607B689B68FB60FA684FF2FD73CFF6CC
:10214000F1731340FB603B68DA683B689B681A4395
:102150003B685B794FEA43031343FA681343FB6020
:102160007B68FA689A607B68DB6AFB60FB6823F433
:102170007003FB603B681B7C03F1FF33DAB2FB7A30
:102180001343FB72FB7A4FEA0353FA681343FB6075
:102190007B68FA68DA6207F11407BD4680BC7047B5
:1021A00080B483B000AF78607B684FF000021A60A3
:1021B0007B684FF000021A717B684FF000025A7181
:1021C0007B684FF000029A607B684FF00002DA6093
:1021D0007B684FF001021A7407F10C07BD4680BC02
:1021E000704700BF80B483B000AF78600B46FB70CF
:1021F000FB78002B06D07B689B6843F001027B686C
:102200009A6005E07B689B6823F001027B689A6016
:1022100007F10C07BD4680BC704700BF80B483B097
:1022200000AF78600B46FB70FB78002B06D07B6814
:102230009B6843F480727B689A6005E07B689B68CA
:1022400023F480727B689A6007F10C07BD4680BC5E
:10225000704700BF80B485B000AF786013460A466F
:102260007A807B704FF00003FB737B88FB737B7875
:10227000002B06D07B685A68FB7B1A437B685A6048
:1022800007E07B685A68FB7B6FEA03031A407B68B0
:102290005A6007F11407BD4680BC704780B483B014
:1022A00000AF78607B689B6843F008027B689A60A7
:1022B00007F10C07BD4680BC704700BF80B485B0F5
:1022C00000AF78604FF00003FB737B689B6803F0FE
:1022D0000803002B03D04FF00103FB7302E04FF023
:1022E0000003FB73FB7B184607F11407BD4680BC57
:1022F000704700BF80B483B000AF78607B689B6894
:1023000043F004027B689A6007F10C07BD4680BC6D
:10231000704700BF80B485B000AF78604FF0000315
:10232000FB737B689B6803F00403002B03D04FF022
:102330000103FB7302E04FF00003FB73FB7B1846C5
:1023400007F11407BD4680BC704700BF80B483B05E
:1023500000AF78600B46FB70FB78002B06D07B68E3
:102360009B6843F4A0027B689A6005E07B689B68E9
:1023700023F4A0027B689A6007F10C07BD4680BC7D
:10238000704700BF80B485B000AF78604FF00003A5
:10239000FB737B689B6803F48003002B03D04FF032
:1023A0000103FB7302E04FF00003FB73FB7B184655
:1023B00007F11407BD4680BC704700BF80B485B0EC
:1023C00000AF78600B46FB704FF00003FB604FF0EE
:1023D0000003BB607B685B68FB60FB6823F46043C1
:1023E000FB60FB7803F1FF33BB60BB684FEA43330C
:1023F000FA681343FB607B68FA685A6007F11407B8
:10240000BD4680BC704700BF80B483B000AF786029
:102410000B46FB70FB78002B06D07B685B6843F4AF
:1024200000627B685A6005E07B685B6823F40062A9
:102430007B685A6007F10C07BD4680BC704700BF3F
:1024400080B485B000AF7860F970BA707B704FF0DF
:102450000003FB604FF00003BB60FB78092B27D91A
:102460007B68DB68FB60FA7813464FEA43039B18EE
:10247000A3F11E034FF0070202FA03F3BB60BB682F
:102480006FEA0303FA681340FB607978FA78134621
:102490004FEA43039B18A3F11E0301FA03F3BB6049
:1024A000FA68BB681343FB607B68FA68DA6022E075
:1024B0007B681B69FB60FA7813464FEA43039B185D
:1024C0004FF0070202FA03F3BB60BB686FEA030335
:1024D000FA681340FB607978FA7813464FEA4303B1
:1024E0009B1801FA03F3BB60FA68BB681343FB60F7
:1024F0007B68FA681A61BB78062B27D87B685B6B10
:10250000FB60BB7803F1FF3213464FEA83039B184D
:102510004FF01F0202FA03F3BB60BB686FEA0303CC
:10252000FA681340FB60F978BB7803F1FF32134679
:102530004FEA83039B1801FA03F3BB60FA68BB6898
:102540001343FB607B68FA685A6351E0BB780C2B3D
:1025500027D87B681B6BFB60BA7813464FEA83036E
:102560009B18A3F123034FF01F0202FA03F3BB6091
:10257000BB686FEA0303FA681340FB60F978BA7826
:1025800013464FEA83039B18A3F1230301FA03F3D5
:10259000BB60FA68BB681343FB607B68FA681A6328
:1025A00026E07B68DB6AFB60BA7813464FEA830358
:1025B0009B18A3F141034FF01F0202FA03F3BB6023
:1025C000BB686FEA0303FA681340FB60F978BA78D6
:1025D00013464FEA83039B18A3F1410301FA03F367
:1025E000BB60FA68BB681343FB607B68FA68DA6219
:1025F00007F11407BD4680BC704700BF80B483B0AC
:1026000000AF78600B46FB70FB78002B06D07B6830
:102610009B6843F480127B689A6005E07B689B6846
:1026200023F480127B689A6007F10C07BD4680BCDA
:10263000704700BF80B483B000AF78607B68DB6C0C
:102640009BB2184607F10C07BD4680BC704700BF1F
:1026500080B400AF42F24C43C4F201031B68184639
:10266000BD4680BC704700BF80B483B000AF7860C7
:102670000B46FB70FB78002B06D07B685B6843F44D
:1026800080627B685A6005E07B685B6823F4806247
:102690007B685A6007F10C07BD4680BC704700BFDD
:1026A00080B483B000AF78600B46FB70FB78002BE2
:1026B00006D07B685B6843F480527B685A6005E013
:1026C0007B685B6823F480527B685A6007F10C07D3
:1026D000BD4680BC704700BF80B485B000AF786055
:1026E00039604FF00003FB607B689B68FB60FB6810
:1026F00023F4E043FB60FA683B681343FB607B68AC
:10270000FA689A6007F11407BD4680BC704700BFA5
:1027100080B483B000AF78600B46FB70FB78002B71
:1027200006D07B689B6843F400427B689A6005E0B2
:102730007B689B6823F400427B689A6007F10C0772
:10274000BD4680BC704700BF80B483B000AF7860E6
:102750000B46FB70FB78002B06D07B689B6843F42C
:1027600002127B689A6005E07B689B6823F4021282
:102770007B689A6007F10C07BD4680BC704700BFBC
:1027800080B485B000AF78604FF00003FB737B68C6
:102790009B6803F40013002B03D04FF00103FB737D
:1027A00002E04FF00003FB73FB7B184607F11407B0
:1027B000BD4680BC704700BF80B487B000AF786072
:1027C000F970BA707B704FF000037B614FF000032B
:1027D0003B614FF00003FB60FB78092B27D97B6836
:1027E000DB687B61FA7813464FEA43039B18A3F139
:1027F0001E034FF0070202FA03F33B613B696FEAE5
:1028000003037A6913407B617978FA7813464FEABB
:1028100043039B18A3F11E0301FA03F33B617A699A
:102820003B6913437B617B687A69DA6022E07B68ED
:102830001B697B61FA7813464FEA43039B184FF0FC
:10284000070202FA03F33B613B696FEA03037A690B
:1028500013407B617978FA7813464FEA43039B185B
:1028600001FA03F33B617A693B6913437B617B683F
:102870007A691A617B689B6B7B617B6903F4401307
:102880004FEA1353FB60FB68DBB26FEA0303DAB273
:10289000BB78D318DBB203F10303DBB21A4613464D
:1028A0004FEA83039B184FF01F0202FA03F33B61C8
:1028B0003B696FEA03037A6913407B61F978FB682F
:1028C000DBB26FEA0303DAB2BB78D318DBB203F1F1
:1028D0000303DBB21A4613464FEA83039B1801FA3F
:1028E00003F33B617A693B6913437B617B687A69D7
:1028F0009A6307F11C07BD4680BC704780B485B061
:1029000000AF78600B46FB704FF00003FB604FF0A8
:102910000003BB607B689B6BFB60FB6823F4401388
:10292000FB60FB7803F1FF33BB60BB684FEA0353E6
:10293000FA681343FB607B68FA689A6307F114072F
:10294000BD4680BC704700BF80B485B000AF7860E2
:1029500013460A46FA703B804FF00003FB607B6829
:10296000FB60FA78FB68D318FB60FB683A881A6052
:1029700007F11407BD4680BC704700BF80B485B026
:1029800000AF78600B46FB704FF00003FB607B6884
:10299000FB60FA78FB68D31803F12803FB60FB683F
:1029A0001B689BB2184607F11407BD4680BC7047F0
:1029B00080B485B000AF786039604FF00003FB60F1
:1029C0007B685B68FB60FB6823F4400323F40073BF
:1029D000FB60FA683B681343FB607B68FA685A60E7
:1029E00007F11407BD4680BC704700BF80B483B0B8
:1029F00000AF786013460A467A803B807A887B680D
:102A00005A623A887B689A6207F10C07BD4680BC1F
:102A1000704700BF80B485B000AF78600B46FB7094
:102A20004FF00003FB607B685B68FB60FB6823F092
:102A30001F03FB60FB78FA681343FB607B68FA684E
:102A40005A6007F11407BD4680BC704780B483B05C
:102A500000AF0346FB71FB79002B0CD04FF41053F1
:102A6000C4F201034FF41052C4F20102926842F41E
:102A700000029A600BE04FF41053C4F201034FF4CC
:102A80001052C4F20102926822F400029A6007F127
:102A90000C07BD4680BC704780B485B000AF78603D
:102AA0000B46FB704FF00003FB737B681A68FB78E2
:102AB0001340002B03D04FF00103FB7302E04FF0F3
:102AC0000003FB73FB7B184607F11407BD4680BC6F
:102AD000704700BF80B483B000AF78600B46FB70D6
:102AE000FB786FEA03027B681A6007F10C07BD46AA
:102AF00080BC704780B487B000AF78600B467B80A5
:102B00004FF00003FB754FF000033B614FF00003F3
:102B1000FB607B884FEA13239BB23B617B685A685A
:102B20007B88DBB21340FB607B681A683B6913400B
:102B3000002B06D0FB68002B03D04FF00103FB7580
:102B400002E04FF00003FB75FB7D184607F11C0700
:102B5000BD4680BC704700BF80B485B000AF7860D0
:102B60000B467B804FF00003FB737B884FEA1323F7
:102B70009BB2FB73FB7B6FEA03027B681A6007F171
:102B80001407BD4680BC704780B483B000AF786046
:102B90007B681A684FF6FE7313407A6813607B688F
:102BA0004FF000021A607B684FF000025A607B68A9
:102BB0004FF000029A607B684FF00002DA607A689A
:102BC0004FF00803C4F202039A420CD14FF0000305
:102BD000C4F202034FF00002C4F20202526842F053
:102BE0000F025A60DAE07A684FF01C03C4F2020365
:102BF0009A420CD14FF00003C4F202034FF00002DE
:102C0000C4F20202526842F0F0025A60C6E07A68EA
:102C10004FF03003C4F202039A420CD14FF000038C
:102C2000C4F202034FF00002C4F20202526842F4FE
:102C300070625A60B2E07A684FF04403C4F2020353
:102C40009A420CD14FF00003C4F202034FF000028D
:102C5000C4F20202526842F470425A609EE07A68FE
:102C60004FF05803C4F202039A420CD14FF0000314
:102C7000C4F202034FF00002C4F20202526842F4AE
:102C800070225A608AE07A684FF06C03C4F2020343
:102C90009A420CD14FF00003C4F202034FF000023D
:102CA000C4F20202526842F470025A6076E07A6816
:102CB0004FF08003C4F202039A420CD14FF000039C
:102CC000C4F202034FF00002C4F20202526842F062
:102CD00070625A6062E07A684FF48163C4F2020362
:102CE0009A420CD14FF48063C4F202034FF4806225
:102CF000C4F20202526842F00F025A604EE07A6853
:102D000040F21C43C4F202039A420CD14FF4806398
:102D1000C4F202034FF48062C4F20202526842F02D
:102D2000F0025A603AE07A684FF48663C4F2020314
:102D30009A420CD14FF48063C4F202034FF48062D4
:102D4000C4F20202526842F470625A6026E07A6865
:102D500040F24443C4F202039A420CD14FF4806320
:102D6000C4F202034FF48062C4F20202526842F4D9
:102D700070425A6012E07A684FF48B63C4F2020327
:102D80009A420BD14FF48063C4F202034FF4806285
:102D9000C4F20202526842F470225A6007F10C0732
:102DA000BD4680BC704700BF80B485B000AF78607E
:102DB00039604FF00003FB607B681B68FB60FB68B9
:102DC00023F4FF4323F07003FB603B689A683B6881
:102DD0001B6A1A433B681B691A433B685B691A43C9
:102DE0003B689B691A433B68DB691A433B685B6A33
:102DF0001A433B689B6A1343FA681343FB607B6882
:102E0000FA681A603B68DA687B685A603B681A683F
:102E10007B689A603B685A687B68DA6007F1140740
:102E2000BD4680BC704700BF80B483B000AF7860FF
:102E30007B684FF000021A607B684FF000025A6016
:102E40007B684FF000029A607B684FF00002DA6006
:102E50007B684FF000021A617B684FF000025A61F4
:102E60007B684FF000029A617B684FF00002DA61E4
:102E70007B684FF000021A627B684FF000025A62D2
:102E80007B684FF000029A6207F10C07BD4680BCD8
:102E9000704700BF80B483B000AF78600B46FB7012
:102EA000FB78002B06D07B681B6843F001027B682F
:102EB0001A6006E07B681A684FF6FE7313407A6862
:102EC000136007F10C07BD4680BC704780B485B025
:102ED00000AFF860B9601346FB71FB79002B06D098
:102EE000FB681A68BB681A43FB681A6007E0FB6856
:102EF0001A68BB686FEA03031A40FB681A6007F19F
:102F00001407BD4680BC704780B483B000AF7860C2
:102F10000B467B807A887B685A6007F10C07BD46B8
:102F200080BC704780B483B000AF78607B685B681A
:102F30009BB2184607F10C07BD4680BC704700BF26
:102F400080B485B000AF78604FF00003FB734FF0A2
:102F50000003BB607B6803F08053002B06D04FF466
:102F60008063C4F202031B68BB6005E04FF00003FE
:102F7000C4F202031B68BB60BA687B681340002B75
:102F800003D04FF00103FB7302E04FF00003FB732B
:102F9000FB7B184607F11407BD4680BC704700BF95
:102FA00080B483B000AF78607B6803F08053002B5F
:102FB00006D04FF48063C4F202037A685A6005E0D9
:102FC0004FF00003C4F202037A685A6007F10C075D
:102FD000BD4680BC704700BF80B485B000AF78604C
:102FE0004FF00003FB734FF00003BB607B6803F0FE
:102FF0008053002B06D04FF48063C4F202031B6899
:10300000BB6005E04FF00003C4F202031B68BB6025
:10301000BA687B681340002B03D04FF00103FB73A9
:1030200002E04FF00003FB73FB7B184607F1140727
:10303000BD4680BC704700BF80B483B000AF7860ED
:103040007B6803F08053002B06D04FF48063C4F2FA
:1030500002037A685A6005E04FF00003C4F20203ED
:103060007A685A6007F10C07BD4680BC704700BF04
:1030700080B400AF4FF48063C4F201034FF000024C
:103080001A604FF48063C4F201034FF000025A60EB
:103090004FF48063C4F201034FF000029A604FF4D2
:1030A0008063C4F201034FF00002DA604FF48063E2
:1030B000C4F201034FF6FF72C0F20F025A61BD461F
:1030C00080BC704780B485B000AF78604FF00003DB
:1030D000FB604FF48063C4F20103FB607B689B7963
:1030E000002B78D04FF48063C4F201034FF4806268
:1030F000C4F2010211687A6812686FEA02020A409B
:103100001A604FF48063C4F201034FF48062C4F28A
:10311000010251687A6812686FEA02020A405A6036
:103120007B681B79FA68D318FB60FB68FA68116842
:103130007A6812680A431A604FF48063C4F201038C
:103140004FF48062C4F2010291687A6812686FEAF3
:1031500002020A409A604FF48063C4F201034FF404
:103160008062C4F20102D1687A6812686FEA0202D2
:103170000A40DA607B685B79102B1AD14FF48063C8
:10318000C4F201034FF48062C4F2010291687A68CC
:1031900012680A439A604FF48063C4F201034FF44B
:1031A0008062C4F20102D1687A6812680A43DA6068
:1031B0001FE04FF48063C4F20103FB607B685B791E
:1031C000FA68D318FB60FB68FA6811687A681268BD
:1031D0000A431A600DE07B681B79FA68D318FB601C
:1031E000FB68FA6811687A6812686FEA02020A409E
:1031F0001A6007F11407BD4680BC704780B483B0E5
:1032000000AF78607B684FF000021A607B684FF077
:1032100000021A717B684FF00C025A717B684FF004
:1032200000029A7107F10C07BD4680BC704700BFD1
:1032300080B483B000AF78604FF48063C4F20103C0
:103240004FF48062C4F2010211697A680A431A617C
:1032500007F10C07BD4680BC704700BF80B485B045
:1032600000AF78604FF00003FB734FF48063C4F24B
:1032700001035A697B681340002B03D04FF0010310
:10328000FB7302E04FF00003FB73FB7B184607F172
:103290001407BD4680BC704780B483B000AF78602F
:1032A0004FF48063C4F201037A685A6107F10C0796
:1032B000BD4680BC704700BF80B485B000AF786069
:1032C0004FF00003FB734FF00003BB604FF48063CB
:1032D000C4F201031A687B681340BB604FF480633B
:1032E000C4F201035A697B681340002B06D0BB6807
:1032F000002B03D04FF00103FB7302E04FF00003FB
:10330000FB73FB7B184607F11407BD4680BC704772
:1033100080B483B000AF78604FF48063C4F20103DF
:103320007A685A6107F10C07BD4680BC704700BF40
:1033300080B582B000AF78607A684FF40063C4F261
:1033400001039A420CD14FF004004FF0010100F04C
:103350005BFF4FF004004FF0000100F055FF76E0F6
:103360007A684FF44063C4F201039A420CD14FF0E3
:1033700008004FF0010100F047FF4FF008004FF048
:10338000000100F041FF62E07A684FF48053C4F21C
:1033900001039A420CD14FF010004FF0010100F0F0
:1033A00033FF4FF010004FF0000100F02DFF4EE012
:1033B0007A684FF4A053C4F201039A420CD14FF043
:1033C00020004FF0010100F01FFF4FF020004FF0F0
:1033D000000100F019FF3AE07A684FF4C053C4F2DC
:1033E00001039A420CD14FF040004FF0010100F070
:1033F0000BFF4FF040004FF0000100F005FF26E00A
:103400007A684FF4E053C4F201039A420CD14FF0B2
:1034100080004FF0010100F0F7FE4FF080004FF008
:10342000000100F0F1FE12E07A684FF40053C4F29C
:1034300001039A420BD14FF480704FF0010100F06C
:10344000E3FE4FF480704FF0000100F0DDFE07F165
:103450000807BD4680BD00BF80B500AF4FF001003A
:103460004FF0010100F0D0FE4FF001004FF00001DD
:1034700000F0CAFE80BD00BF80B489B000AF7860A4
:1034800039604FF00003FB614FF000033B614FF0E8
:103490000003BB614FF00003FB604FF000037B6152
:1034A0004FF00003BB603B68DB7803F00F03FB6168
:1034B0003B68DB7803F01003002B04D03B689B785B
:1034C000FA691343FB613B681B88DBB2002B4ED0CB
:1034D0007B681B687B614FF00003BB6141E0BB6907
:1034E0004FF0010202FA03F3FB603B681B881A46A7
:1034F000FB6813403B613A69FB689A422DD1BB6976
:103500004FEA8303FB60FB684FF00F0202FA03F3FC
:10351000BB60BB686FEA03037A6913407B61FB6899
:10352000FA6902FA03F37A6913437B613B68DB783B
:10353000282B07D1BB694FF0010202FA03F27B6826
:103540005A610AE03B68DB78482B06D1BB694FF033
:10355000010202FA03F27B681A61BB6903F10103FD
:10356000BB61BB69072BBAD97B687A691A603B6873
:103570001B88FF2B53D97B685B687B614FF000038E
:10358000BB6146E0BB6903F108034FF0010202FA98
:1035900003F3FB603B681B881A46FB6813403B61E2
:1035A0003A69FB689A4230D1BB694FEA8303FB60FA
:1035B000FB684FF00F0202FA03F3BB60BB686FEACF
:1035C00003037A6913407B61FB68FA6902FA03F32B
:1035D0007A6913437B613B68DB78282B08D1BB6990
:1035E00003F108034FF0010202FA03F27B685A610B
:1035F0003B68DB78482B08D1BB6903F108034FF027
:10360000010202FA03F27B681A61BB6903F101034C
:10361000BB61BB69072BB5D97B687A695A6007F132
:103620002407BD4680BC704780B483B000AF78608B
:103630007B684FF6FF721A807B684FF002029A7027
:103640007B684FF00402DA7007F10C07BD4680BCBE
:10365000704700BF80B485B000AF78600B467B80B8
:103660004FF00003FB737B689A687B881340002B44
:1036700003D04FF00103FB7302E04FF00003FB7334
:10368000FB7B184607F11407BD4680BC704700BF9E
:1036900080B483B000AF78607B689B689BB21846AB
:1036A00007F10C07BD4680BC704700BF80B485B0F1
:1036B00000AF78600B467B804FF00003FB737B68A4
:1036C000DA687B881340002B03D04FF00103FB73B3
:1036D00002E04FF00003FB73FB7B184607F1140771
:1036E000BD4680BC704700BF80B483B000AF786037
:1036F0007B68DB689BB2184607F10C07BD4680BCAF
:10370000704700BF80B483B000AF78600B467B8009
:103710007A887B681A6107F10C07BD4680BC704748
:1037200080B483B000AF78600B467B807A887B687A
:103730005A6107F10C07BD4680BC704780B483B066
:1037400000AF786013460A467A807B707B78002B46
:1037500003D07A887B681A6102E07A887B685A61B4
:1037600007F10C07BD4680BC704700BF80B483B032
:1037700000AF78600B467B807A887B68DA6007F15F
:103780000C07BD4680BC704780B485B000AF786040
:103790000B467B804FF48033FB607B88FA681343D1
:1037A000FB607B68FA689A617A887B689A617B68BB
:1037B000FA689A617B689B69FB607B689B69FB6028
:1037C00007F11407BD4680BC704700BF80B485B0C8
:1037D00000AF02460B46FA71BB714FF00003FB606D
:1037E0004FF00003C4F201031B68FB60FA684FF658
:1037F00080731340FB60FB794FEA0313FA681343AD
:10380000FB60BB79FA681343FB604FF00003C4F21E
:103810000103FA681A6007F11407BD4680BC7047BF
:1038200080B483B000AF0346FB714FF01C03C4F2B9
:103830002023FA791A6007F10C07BD4680BC704757
:1038400080B487B000AF78600B46FB704FF0000388
:103850003B614FF00003FB604FF000037B614FF0D2
:103860000003BB607B68002B06DA4FF00003C4F254
:103870000103DB697B6105E04FF00003C4F2010343
:103880005B687B617B6803F470234FEA1343BB6082
:103890007B684FEA03434FEA13433B617B6803F4C1
:1038A0004013B3F5401F10D17B6923F070637B6137
:1038B0004FF00003C4F201034FF00002C4F2010212
:1038C000526822F070625A6026E07B6803F480132D
:1038D000002B10D0BB684FF0030202FA03F3FB6029
:1038E000FB686FEA03037A6913407B617B6943F0ED
:1038F00070637B6110E07B684FEA53534FEA031318
:103900003A6902FA03F36FEA03037A6913407B61B1
:103910007B6943F070637B61FB78002B0AD07B6886
:103920004FEA53534FEA03133A6902FA03F37A69F1
:1039300013437B617B68002B06DA4FF00003C4F26F
:1039400001037A69DA6105E04FF00003C4F2010374
:103950007A695A6007F11C07BD4680BC704700BFFA
:1039600090B484B000AF02460B46FA71BB714FF0C1
:103970000003FB60BB7903F003034FEA83034FF0BE
:103980000F0202FA03F3FB604FF00003C4F20103DD
:10399000BA794FEA9202D2B210464FF00002C4F256
:1039A0000102B9794FEA9101C9B201F1020152F85D
:1039B0002110FA686FEA0202114000F1020243F896
:1039C00022104FF00003C4F20103BA794FEA9202C9
:1039D000D2B210464FF00002C4F20102B9794FEAA8
:1039E0009101C9B201F1020152F82110FC79BA79B2
:1039F00002F003024FEA820204FA02F2114300F1DC
:103A0000020243F8221007F11007BD4690BC704730
:103A100080B483B000AF78604FF0DC03C4F22023A1
:103A20007A681A6007F10C07BD4680BC704700BF7A
:103A300080B400AF4FF48053C4F202034FF48052BD
:103A4000C4F20202126842F001021A604FF480527E
:103A5000C4F202024FF48053C4F2020359684FF0DB
:103A60000003CFF6FF030B4053604FF48053C4F2C2
:103A700002034FF48052C4F20202126822F08472F0
:103A800022F480321A604FF48053C4F202034FF4E0
:103A90008052C4F20202126822F480221A604FF4AB
:103AA0008053C4F202034FF48052C4F202025268FF
:103AB00022F4FE025A604FF48053C4F202034FF422
:103AC0001F029A60BD4680BC704700BF80B483B0BF
:103AD00000AF78604FF48053C4F202034FF4805279
:103AE000C4F20202126822F480321A604FF480534A
:103AF000C4F202034FF48052C4F20202126822F4AC
:103B000080221A607B68B3F5803F03D0B3F5802F25
:103B10000DD019E04FF48053C4F202034FF48052E9
:103B2000C4F20202126842F480321A600DE04FF4CF
:103B30008053C4F202034FF48052C4F202021268AE
:103B400042F4A0221A6000E000BF07F10C07BD4656
:103B500080BC704780B582B000AF4FF000033B607F
:103B60004FF00003FB714FF00003BB714FF03100C9
:103B700000F0CEFB0346BB713B6803F101033B60E1
:103B80003B68B3F5A06F02D0BB79002BEED04FF0AD
:103B9000310000F0BDFB0346002B03D04FF00103C2
:103BA000FB7102E04FF00003FB71FB79184607F14F
:103BB0000807BD4680BD00BF80B485B000AF034696
:103BC000FB714FF00003FB604FF48053C4F202031B
:103BD0001B68FB60FB6823F0F803FB60FB794FEA8E
:103BE000C303FA681343FB604FF48053C4F202032B
:103BF000FA681A6007F11407BD4680BC704700BF21
:103C000080B483B000AF0346FB714FF00003C4F2F1
:103C10004223FA791A6007F10C07BD4680BC704751
:103C200080B485B000AF786039604FF00003FB606E
:103C30004FF48053C4F202035B68FB60FB6823F41B
:103C40007C13FB607A683B681343FA681343FB609C
:103C50004FF48053C4F20203FA685A6007F1140764
:103C6000BD4680BC704700BF80B483B000AF034640
:103C7000FB714FF06003C4F24223FA791A6007F136
:103C80000C07BD4680BC704780B485B000AF78603B
:103C90004FF00003FB604FF48053C4F202035B68F3
:103CA000FB60FB6823F00303FB60FA687B68134347
:103CB000FB604FF48053C4F20203FA685A6007F1C4
:103CC0001407BD4680BC704780B400AF4FF48053EA
:103CD000C4F202035B68DBB203F00C03DBB21846EC
:103CE000BD4680BC704700BF80B485B000AF78602F
:103CF0004FF00003FB604FF48053C4F202035B6893
:103D0000FB60FB6823F0F003FB60FA687B681343F9
:103D1000FB604FF48053C4F20203FA685A6007F163
:103D20001407BD4680BC704780B485B000AF786092
:103D30004FF00003FB604FF48053C4F202035B6852
:103D4000FB60FB6823F4E063FB60FA687B68134365
:103D5000FB604FF48053C4F20203FA685A6007F123
:103D60001407BD4680BC704780B485B000AF786052
:103D70004FF00003FB604FF48053C4F202035B6812
:103D8000FB60FB6823F46053FB607B684FEAC3036E
:103D9000FA681343FB604FF48053C4F20203FA68DD
:103DA0005A6007F11407BD4680BC704780B483B0E9
:103DB00000AF02460B46FA71BB71BB79002B0ED0E7
:103DC00041F20903C4F2020341F20902C4F2020201
:103DD0001278D1B2FA790A43D2B21A7010E041F2E5
:103DE0000903C4F2020341F20902C4F2020212788A
:103DF000D1B2FA796FEA0202D2B20A40D2B21A7094
:103E000007F10C07BD4680BC704700BF80B483B08B
:103E100000AF78604FF0D803C4F242237A681A608A
:103E200007F10C07BD4680BC704700BF80B485B069
:103E300000AF78604FF00003FB604FF48053C4F292
:103E400002035B68FB60FB6823F44043FB60FA6895
:103E50007B681343FB604FF48053C4F20203FA689B
:103E60005A6007F11407BD4680BC704780B483B028
:103E700000AF0346FB714FF48153C4F202034FF0CD
:103E800000021A704FF48153C4F202034FF0000293
:103E90001A70FB79012B02D0042B08D00FE04FF4ED
:103EA0008153C4F202034FF001021A7008E04FF48C
:103EB0008153C4F202034FF005021A7000E000BF04
:103EC00007F10C07BD4680BC704700BF80B483B0CB
:103ED00000AF0346FB714FF49063C4F24223FA79BA
:103EE0001A6007F10C07BD4680BC704780B483B0F0
:103EF00000AF78604FF48053C4F202034FF4805255
:103F0000C4F20202116A7A680A431A6207F10C07C6
:103F1000BD4680BC704700BF80B483B000AF03468D
:103F2000FB7140F23C43C4F24223FA791A6007F174
:103F30000C07BD4680BC704780B487B000AF786086
:103F40004FF000037B614FF000033B614FF0000333
:103F5000FB604FF00003BB604FF48053C4F20203D8
:103F60005B6803F00C037B617B69042B0AD0082B90
:103F70000FD0002B4DD17A684FF49053C0F27A03E2
:103F800013604DE07A684FF49053C0F27A031360E7
:103F900046E04FF48053C4F202035B6803F47013ED
:103FA0003B614FF48053C4F202035B6803F4803337
:103FB000FB603B694FEA934303F102033B61FB68FB
:103FC000002B09D13A694FF41063C0F23D0303FBA3
:103FD00002F27B681A6023E04FF48053C4F20203BC
:103FE0005B6803F40033002B09D03A694FF4106387
:103FF000C0F23D0303FB02F27B681A6010E03A69ED
:104000004FF49053C0F27A0303FB02F27B681A600C
:1040100006E07A684FF49053C0F27A03136000BF51
:104020004FF48053C4F202035B6803F0F0037B613A
:104030007B694FEA13137B6140F21013C2F2000355
:104040007A699B181B78DBB2BB607B681A68BB6817
:1040500022FA03F27B685A604FF48053C4F20203E1
:104060005B6803F4E0637B617B694FEA13237B6148
:1040700040F21013C2F200037A699B181B78DBB27E
:10408000BB607B685A68BB6822FA03F27B689A605F
:104090004FF48053C4F202035B6803F460537B6106
:1040A0007B694FEAD3237B6140F21013C2F2000315
:1040B0007A699B181B78DBB2BB607B685A68BB6867
:1040C00022FA03F27B68DA604FF48053C4F20203F1
:1040D0005B6803F440437B617B694FEA93337B6108
:1040E00040F22013C2F200037A699B181B78DBB2FE
:1040F000BB607B68DA68BB68B2FBF3F27B681A616D
:1041000007F11C07BD4680BC704700BF80B483B078
:1041100000AF78600B46FB70FB78002B0CD04FF49F
:104120008053C4F202034FF48052C4F20202516978
:104130007A680A435A610DE04FF48053C4F20203D7
:104140004FF48052C4F2020251697A686FEA0202A7
:104150000A405A6107F10C07BD4680BC704700BF9A
:1041600080B483B000AF78600B46FB70FB78002B07
:104170000CD04FF48053C4F202034FF48052C4F2C7
:10418000020291697A680A439A610DE04FF4805304
:10419000C4F202034FF48052C4F2020291697A68B9
:1041A0006FEA02020A409A6107F10C07BD4680BC23
:1041B000704700BF80B483B000AF78600B46FB70DF
:1041C000FB78002B0CD04FF48053C4F202034FF461
:1041D0008052C4F20202D1697A680A43DA610DE0C2
:1041E0004FF48053C4F202034FF48052C4F202022F
:1041F000D1697A686FEA02020A40DA6107F10C07B6
:10420000BD4680BC704700BF80B483B000AF78600B
:104210000B46FB70FB78002B0CD04FF48053C4F29C
:1042200002034FF48052C4F20202D1687A680A4352
:10423000DA600DE04FF48053C4F202034FF4805271
:10424000C4F20202D1687A686FEA02020A40DA60B8
:1042500007F10C07BD4680BC704700BF80B483B037
:1042600000AF78600B46FB70FB78002B0CD04FF44E
:104270008053C4F202034FF48052C4F20202116967
:104280007A680A431A610DE04FF48053C4F20203C6
:104290004FF48052C4F2020211697A686FEA020296
:1042A0000A401A6107F10C07BD4680BC704700BF89
:1042B00080B483B000AF0346FB714FF48863C4F24F
:1042C0004223FA791A6007F10C07BD4680BC70479B
:1042D00080B483B000AF0346FB714FF04C03C4F2CF
:1042E0004223FA791A6007F10C07BD4680BC70477B
:1042F00080B483B000AF0346FB7141F20703C4F200
:104300000203FA791A7007F10C07BD4680BC7047AA
:1043100080B487B000AF0346FB714FF00003FB6031
:104320004FF000037B614FF00003FB74FB794FEA11
:104330005313DBB2FB60FB68012B06D14FF48053B3
:10434000C4F202031B687B610FE0FB68022B06D1FD
:104350004FF48053C4F202031B6A7B6105E04FF403
:104360008053C4F202035B6A7B61FB7903F01F0395
:10437000FB60FB687A6922FA03F303F00103002B68
:1043800003D04FF00103FB7402E04FF00003FB7415
:10439000FB7C184607F11C07BD4680BC704700BF78
:1043A00080B400AF4FF48053C4F202034FF4805244
:1043B000C4F20202526A42F080725A62BD4680BC68
:1043C000704700BF80B485B000AF0346FB714FF06B
:1043D0000003FB734FF48053C4F202039A68FB7925
:1043E0001340002B03D04FF00103FB7302E04FF0AA
:1043F0000003FB73FB7B184607F11407BD4680BC26
:10440000704700BF80B483B000AF0346FB7141F238
:104410000A03C4F20203FA791A7007F10C07BD46C9
:1044200080BC704780B582B000AF0346FB80FB883C
:10443000002B0AD140F65823C2F200031B684FF04C
:1044400001021A824FF000030DE040F65423C2F23D
:1044500000031B681B68984740F65823C2F200030C
:104460001B6803F10A03184607F10807BD4680BD23
:1044700080B500AF40F65823C2F200031B68DA781B
:1044800040F28403C2F200035B789A4225D840F6DA
:104490005823C2F200031B689B78002B1DD140F605
:1044A0005823C2F200031B689B88002B15D140F6ED
:1044B0005823C2F200031A6840F65823C2F20003E0
:1044C0001B68DB78937240F65423C2F200031B682A
:1044D0005B6898474FF0000301E04FF00203184675
:1044E00080BD00BF80B582B000AF0346FB80FB8873
:1044F000002B0AD140F65823C2F200031B684FF08C
:1045000001021A824FF000030DE040F65423C2F27C
:1045100000031B689B68984740F65823C2F20003CB
:104520001B6803F10C03184607F10807BD4680BD60
:1045300080B582B000AF40F63023C2F200031B68A2
:104540009A6940F65823C2F200031B68597940F675
:104550005823C2F200031B68DB78084619469047CF
:104560000346FB7140F65823C2F200031B689B7A96
:10457000002B3AD0FB79002B0FD140F65823C2F222
:1045800000031B681B79002B07D140F65823C2F2A9
:1045900000031B689B78002B02D04FF0020326E03B
:1045A000FB79002B21D140F65423C2F200031B6893
:1045B000DB68984740F65823C2F200031A6840F6B9
:1045C0005823C2F200031B685B79D37240F658236C
:1045D000C2F200031A6840F65823C2F200031B68B7
:1045E000DB7813734FF0000301E04FF0020318462D
:1045F00007F10807BD4680BD80B584B000AF034613
:10460000FB80FB88002B0AD140F65823C2F200033E
:104610001B684FF002021A824FF00003C5E040F61B
:104620002823C2F200034FF000021A8040F65823FC
:10463000C2F200031B681B7803F07F03002B47D1F5
:1046400040F65823C2F200031B685B7AFB73FB7BC6
:1046500003F02003002B0DD040F62823C2F2000304
:104660001B7843F00203DAB240F62823C2F20003BB
:104670001A700CE040F62823C2F200031B7823F0E6
:104680000203DAB240F62823C2F200031A70FB7B61
:1046900003F04003002B0DD040F62823C2F20003A4
:1046A0001B7843F00103DAB240F62823C2F200037C
:1046B0001A706FE040F62823C2F200031B7823F043
:1046C0000103DAB240F62823C2F200031A7061E057
:1046D00040F65823C2F200031B681B7803F07F03E7
:1046E000012B04D140F62823C2F200035DE040F61E
:1046F0005823C2F200031B681B7803F07F03022BD0
:1047000045D140F65823C2F200031B685B79BB73A6
:10471000BB7B03F00F037B73BB7B5BB2002B1ADA0E
:104720007B7B4FEA830303F1804303F5B8431B68A7
:104730009BB203F03003102B2CD140F62823C2F299
:1047400000031B7843F00103DAB240F62823C2F2DB
:1047500000031A701EE07B7B4FEA830303F1804362
:1047600003F5B8431B689BB203F44053B3F5805F75
:1047700010D140F62823C2F200031B7843F0010356
:10478000DAB240F62823C2F200031A7002E04FF0BA
:1047900000030AE040F65423C2F200031B681B69C1
:1047A000984740F62823C2F20003184607F1100785
:1047B000BD4680BD90B587B000AF40F65823C2F229
:1047C00000031B681B7803F07F033B613B69002BF0
:1047D00011D140F65823C2F200031A6840F658235C
:1047E000C2F200031B685B7A23F02003DBB2537232
:1047F0004FF00003F1E03B69022B40F0EC8040F603
:104800005823C2F200031B685B88002B07D140F6D7
:104810005823C2F200031B681B79002B02D04FF013
:104820000203DAE040F28403C2F20003FB6040F6C8
:104830005823C2F200031B685B79BB60BB6823F09E
:1048400080037B607B683B6040F65823C2F2000324
:104850001B685B79DBB25BB2002B0CDA3B684FEA7A
:10486000830303F1804303F5B8431B689BB203F055
:1048700030037B610BE03B684FEA830303F1804325
:1048800003F5B8431B689BB203F440537B61FB689C
:104890001B781A467B689A420AD97B69002B07D09D
:1048A00040F65823C2F200031B689B7A002B02D10A
:1048B0004FF0020391E0BB6803F08003002B19D096
:1048C0003B684FEA830303F1804303F5B8431B6859
:1048D0009BB203F03003102B73D13B68DBB2184658
:1048E00001F00EFF3B68DBB218464FF0300101F0DB
:1048F000E5FB66E03B684FEA830303F1804303F581
:10490000B8431B689BB203F44053B3F5805F58D1A2
:104910003B68002B2ED13B68DAB240F28803C2F22A
:10492000000393F82C301046194602F039F83B6822
:104930004FEA830303F1804303F5B8431B689BB23E
:1049400023F4804323F070039CB284F480539CB220
:1049500084F400539CB23B684FEA830303F1804226
:1049600002F5B84248F28003CFF6FF7323439BB2AF
:10497000136026E03B68DBB2184601F091FE3B680D
:104980004FEA830303F1804303F5B8431B689BB2EE
:1049900023F4804323F070039CB284F480539CB2D0
:1049A00084F400539CB23B684FEA830303F18042D6
:1049B00002F5B84248F28003CFF6FF7323439BB25F
:1049C000136040F65423C2F200031B685B699847EA
:1049D0004FF0000301E04FF00203184607F11C07F7
:1049E000BD4690BD90B585B000AF40F65823C2F2E9
:1049F00000031B685B79BB60BB6823F080037B60AE
:104A00007B683B6040F65823C2F200031B685B7969
:104A1000DBB25BB2002B0CDA3B684FEA830303F195
:104A2000804303F5B8431B689BB203F03003FB607F
:104A30000BE03B684FEA830303F1804303F5B8437F
:104A40001B689BB203F44053FB6040F28403C2F244
:104A500000031B781A463B689A4212D940F6582345
:104A6000C2F200031B685B88002B0AD1FB68002B95
:104A700007D040F65823C2F200031B689B7A002B34
:104A800002D14FF002034CE0BB6803F08003002B1F
:104A90001FD03B684FEA830303F1804303F5B8431B
:104AA0001B689BB223F4E04323F040039CB284F0E4
:104AB00010039CB23B684FEA830303F1804202F586
:104AC000B84248F28003CFF6FF7323439BB21360D2
:104AD0001EE03B684FEA830303F1804303F5B843CC
:104AE0001B689BB223F4804323F070039CB284F4D0
:104AF00080539CB23B684FEA830303F1804202F586
:104B0000B84248F28003CFF6FF7323439BB2136091
:104B100040F65423C2F200031B689B6998474FF08C
:104B20000003184607F11407BD4690BD80B500AFDD
:104B300040F65823C2F200031A6840F65823C2F226
:104B400000031B685B7A43F02003DBB2537240F62C
:104B50005423C2F200031B68DB6998474FF000033F
:104B6000184680BD80B485B000AF03463960FB8035
:104B700040F65823C2F200031B685B8AFB60FB8887
:104B8000002B0ED140F65823C2F200031B683A688E
:104B90009188FA6892B28A1A92B21A824FF0000390
:104BA00003E03B681A68FB68D318184607F114073E
:104BB000BD4680BC704700BF80B584B000AF40F6F2
:104BC0005823C2F200031B6803F11003BB60BB68EB
:104BD0001B887B60BB689B68002B2FD07B68002BF9
:104BE0002CD0BB689B88FB60FA687B689A4201D92D
:104BF0007B68FB60BB689B68FA6892B21046984776
:104C00003860BB681A88FB689BB2D31A9AB2BB683B
:104C10001A80BB685A88FB689BB2D3189AB2BB68EB
:104C20005A804FF0000001F043FE03461A46FB682D
:104C30009BB2386811461A4601F022F9BB681B88FE
:104C4000002B13D040F65E23C2F200034FF4405213
:104C50001A804FF000004FF0000101F049FE40F6CD
:104C60006023C2F200034FF030021A80BB681A883A
:104C7000BB689B889A4208D340F65823C2F20003CF
:104C80001B684FF003021A7230E0BB681B88002BD0
:104C900008D040F65823C2F200031B684FF005020B
:104CA0001A7223E0BB681B88002B1FD140F65823E3
:104CB000C2F200031B684FF006021A7245F6504319
:104CC000C4F200031B689BB21A4643F20203C2F20D
:104CD0000003D3184FEA43034FF000021A6040F676
:104CE0006023C2F200034FF030021A8007F1100770
:104CF000BD4680BD80B586B000AF40F65823C2F2F5
:104D000000031B6803F11003FB60FB681B88BB609A
:104D100040F65823C2F200031B681B7A7B61BB6814
:104D2000002B37D17B69042B34D140F2A453C2F25B
:104D300000031B78012B22D145F65043C4F2000337
:104D40001B689BB21A4643F20203C2F20003D31857
:104D50004FEA43034FF000021A6040F66023C2F2AC
:104D600000034FF030021A804FF004037B6140F2E1
:104D7000A453C2F200034FF000021A7056E04FF045
:104D800007037B6140F66023C2F200034FF010027C
:104D90001A804BE0FB689B883B61BA683B699A428A
:104DA00002D84FF0040301E04FF002037B613A693F
:104DB000BB689A4201D9BB683B61FB689B683A6952
:104DC00092B21046984778604FF0000001F052FD13
:104DD00003461A463B699BB2786811461A4601F0B1
:104DE0000BF83B699BB24FF00000194601F080FDC3
:104DF000FB681A883B699BB2D31A9AB2FB681A8087
:104E0000FB685A883B699BB2D3189AB2FB685A80F8
:104E100040F66023C2F200034FF030021A8040F6E1
:104E20005E23C2F200034FF440521A8040F658232A
:104E3000C2F200031B687A69D2B21A7207F118072E
:104E4000BD4680BD80B584B000AF4FF00203FB7358
:104E500040F65823C2F200031B685B787B6040F683
:104E60005823C2F200031B681B7803F07F03002B5A
:104E700076D17B68092B04D1FFF7FAFA0346FB735E
:104E80009EE07B68052B29D140F65823C2F200032F
:104E90001B68DB78DBB25BB2002B17DB40F65823D4
:104EA000C2F200031B689B78002B0FD140F65823F9
:104EB000C2F200031B689B88002B07D140F65823E1
:104EC000C2F200031B689B7A002B03D04FF008034B
:104ED000BB60AEE04FF00003FB7371E07B68032B17
:104EE00018D140F65823C2F200031B68DB78012B6F
:104EF0000CD140F65823C2F200031B689B88002B9C
:104F000004D1FFF713FE0346FB7359E04FF0020391
:104F1000FB7356E07B68012B52D140F65823C2F256
:104F200000031B68DB78012B16D140F65823C2F230
:104F300000031B689B88002B0ED140F65823C2F259
:104F400000031B685B7A03F02003002B04D0FFF7FB
:104F500031FC0346FB7334E04FF00203FB732FE098
:104F600040F65823C2F200031B681B7803F07F034E
:104F7000012B07D17B680B2B23D1FFF7D9FA03460E
:104F8000FB731EE040F65823C2F200031B681B7837
:104F900003F07F03022B0FD17B68012B04D1FFF7B5
:104FA00009FC0346FB730CE07B68032B09D1FFF778
:104FB00019FD0346FB7304E04FF00203FB7300E0AE
:104FC00000BFFB7B002B12D040F63023C2F200035F
:104FD0001B685B697A68D2B2104698470346FB7338
:104FE000FB7B032B03D14FF00903BB6021E0FB7B6C
:104FF000002B03D04FF00803BB601AE04FF006030C
:10500000BB6045F65043C4F200031B689BB21A46CE
:1050100043F20203C2F20003D3184FEA43034FF0F6
:1050200000021A6040F66023C2F200034FF0300223
:105030001A8040F65823C2F200031B68BA68D2B245
:105040001A7200BF07F11007BD4680BD80B58AB057
:1050500000AF40F65823C2F200031B685B78BB61C7
:105060004FF000037B624FF000037B61BB69062BAE
:1050700033D140F65823C2F200031B681B7803F0BB
:105080007F03002B40F03C8140F65823C2F200031E
:105090001B689B78FB74FB7C012B07D140F6302307
:1050A000C2F200031B68DB697B6229E1FB7C022BF7
:1050B00007D140F63023C2F200031B681B6A7B62F3
:1050C0001EE1FB7C032B40F01B8140F63023C2F233
:1050D00000031B685B6A7B6212E1BB69002B40F036
:1050E000B58040F65823C2F200031B685B88002B92
:1050F00040F0AC8040F65823C2F200031B68DB8806
:10510000022B40F0A38040F65823C2F200031B6834
:105110001B79002B40F09A8040F65823C2F200031E
:105120001B681B7803F07F03002B0DD140F658233A
:10513000C2F200031B689B88002B05D144F2F9538F
:10514000C0F600037B62DAE040F65823C2F20003A7
:105150001B681B7803F07F03012B22D140F630231C
:10516000C2F200031B689A6940F65823C2F200039A
:105170001B685B7918464FF0000190470346002BEF
:1051800040F0BD8040F65823C2F200031B689B7AB2
:10519000002B00F0B48044F2F953C0F600037B62A8
:1051A000ADE040F65823C2F200031B681B7803F001
:1051B0007F03022B40F0A38040F65823C2F2000385
:1051C0001B685B7903F00F03FB6040F65823C2F2C3
:1051D00000031B685B7903F07003BB6040F6582343
:1051E000C2F200031B685B79DBB25BB2002B0CDA06
:1051F000FB684FEA830303F1804303F5B8431B6860
:105200009BB203F03003FB610BE0FB684FEA8303C2
:1052100003F1804303F5B8431B689BB203F440538A
:10522000FB6140F28403C2F200031B781A46FB685C
:105230009A4264D9BB68002B61D1FB69002B5ED018
:1052400044F2F953C0F600037B6258E0BB69082BB7
:105250000FD140F65823C2F200031B681B7803F0FD
:105260007F03002B4CD144F22543C0F600037B6240
:1052700046E0BB690A2B43D140F65823C2F2000333
:105280001B681B7803F07F03012B39D140F65823AC
:10529000C2F200031B689B7A002B31D040F65823E2
:1052A000C2F200031B685B88002B29D140F658230B
:1052B000C2F200031B681B79002B21D140F6582352
:1052C000C2F200031B68DB88012B19D140F63023A2
:1052D000C2F200031B689A6940F65823C2F2000329
:1052E0001B685B7918464FF0000190470346002B7E
:1052F00006D144F2E543C0F600037B6200E000BF44
:105300007B6A002B17D040F65823C2F200031B68BB
:105310007A6992B25A8240F65823C2F200031B689F
:105320007A6A9A617B6A4FF0000098474FF0000359
:1053300087F823301DE040F63023C2F200031B68DB
:105340001A6940F65823C2F200031B685B781846BE
:105350009047034687F8233097F82330032B08D172
:1053600040F65823C2F200031B684FF009021A727C
:10537000ACE040F65823C2F200031B681A8A4FF6CD
:10538000FF739A4208D140F65823C2F200031B680B
:105390004FF009021A7299E097F82330022B07D0D8
:1053A00040F65823C2F200031B681B8A002B08D169
:1053B00040F65823C2F200031B684FF008021A722D
:1053C00084E040F65823C2F200031B681B78DBB26E
:1053D0005BB2002B6ADA40F65823C2F200031B6866
:1053E000DB887B6040F65823C2F200031B681B8AEF
:1053F0001A467B689A4208D940F65823C2F2000345
:105400001B687A6892B21A8240E040F65823C2F2D2
:1054100000031B681A8A40F65823C2F200031B6877
:10542000DB889A4232D240F65823C2F200031B684E
:105430001A8A40F63023C2F200031B6893F82C301E
:105440009A4207D240F2A453C2F200034FF0000286
:105450001A701BE040F65823C2F200031B681B8A37
:105460001A4640F63023C2F200031B6893F82C3032
:1054700092FBF3F103FB01F3D31A002B06D140F2A8
:10548000A453C2F200034FF001021A7040F65823F1
:10549000C2F200031A6840F63023C2F200031B6810
:1054A00093F82C309382FFF725FC0EE040F658234A
:1054B000C2F200031B684FF003021A7240F65E232B
:1054C000C2F200034FF440521A8000BF07F12807D0
:1054D000BD4680BD90B583B000AF4FF00103FB80A7
:1054E00045F65043C4F200031B689BB21A4643F2D0
:1054F0000403C2F20003D3184FEA43031B689BB2B4
:105500004FEA430303F1804303F5C0433B6040F699
:105510005823C2F200031B681B7A092B4DD040F6BA
:105520005823C2F200031A683B681978117003F11E
:1055300001033B6040F65823C2F200031A683B683F
:105540001978517003F101033B603A68FB884FEA18
:105550004303D3183B6040F65823C2F200031C6893
:105560003B681A8803F102033B60104601F0F2FD2C
:10557000034663803A68FB884FEA4303D3183B60D5
:1055800040F65823C2F200031C683B681A8803F1F6
:1055900002033B60104601F0DDFD0346A3803A683C
:1055A000FB884FEA4303D3183B6040F65823C2F20E
:1055B00000031B683A681288DA8040F65823C2F26A
:1055C00000031B684FF001021A7240F65823C2F222
:1055D00000031B68DB88002B02D1FFF733FC01E0DE
:1055E000FFF734FD00F0AAF80346184607F10C0750
:1055F000BD4690BD80B582B000AF40F65823C2F2E0
:1056000000031B681B7A7B607B68022B02D07B68DF
:10561000042B09D1FFF76EFB40F65823C2F20003BA
:105620001B681B7A7B6032E07B68062B2CD140F62E
:105630005823C2F200031B685B78052B19D140F692
:105640005823C2F200031B681B7803F07F03002B72
:105650000FD140F65823C2F200031B68DB781846CE
:1056600000F09CF840F65423C2F200031B681B6A4A
:10567000984740F63023C2F200031B689B689847A6
:105680004FF008037B6002E04FF008037B6040F6B8
:105690005823C2F200031B687A68D2B21A7200F073
:1056A0004DF80346184607F10807BD4680BD00BF08
:1056B00080B582B000AF40F65823C2F200031B68E9
:1056C0001B7A7B607B68022B02D07B68042B03D1A2
:1056D0004FF008037B6020E07B68032B02D07B68DF
:1056E000052B09D1FFF768FA40F65823C2F20003F0
:1056F0001B681B7A7B6010E07B68072B0AD140F6A1
:105700003023C2F200031B68DB6898474FF00803A0
:105710007B6002E04FF008037B6040F65823C2F242
:1057200000031B687A68D2B21A7200F007F80346C9
:10573000184607F10807BD4680BD00BF80B500AF21
:1057400040F28803C2F2000393F82C304FF00000BF
:10575000194601F025F940F65823C2F200031B68F0
:105760001B7A082B0DD140F65E23C2F200034FF4E2
:1057700080521A8040F66023C2F200034FF01002FC
:105780001A8040F65823C2F200031B681B7A092BCB
:1057900014BF00230123DBB2184680BD80B485B05E
:1057A00000AF0346FB7140F28403C2F200031B7892
:1057B000BB604FF00003FB6021E0FB68DBB24FEA07
:1057C000830303F1804303F5B843FA68D2B24FEA8A
:1057D000820202F1804202F5B842126892B211468A
:1057E00040F60F720A4042F4004242F08002F9682B
:1057F000C9B20A431A60FB6803F10103FB60FA684F
:10580000BB689A42D9D345F64C43C4F20003FA79F7
:1058100062F07F02D2B21A6007F11407BD4680BC65
:10582000704700BF80B400AFBD4680BC704700BF6A
:1058300080B500AF40F65823C2F2000340F638228C
:10584000C2F200021A6040F65823C2F200031B683D
:105850004FF002021A7240F63023C2F2000340F207
:105860008802C2F200021A6040F65423C2F200031A
:1058700040F2B802C2F200021A6040F63023C2F2CF
:1058800000031B681B68984780BD00BF90B583B0BC
:1058900000AF4FF00003FB80F5E140F60023C2F2B9
:1058A00000031B889BB2DBB203F00F03DAB240F6B1
:1058B0003423C2F200031A7040F63423C2F200030C
:1058C0001B78002B40F06F814FF4B843C4F2000303
:1058D0001B689AB240F65E23C2F200031A8040F6BB
:1058E0005E23C2F200031B889BB203F030039AB21E
:1058F00040F66023C2F200031A8040F65E23C2F233
:1059000000031B889BB203F440539AB240F65E2317
:10591000C2F200031A804FF4B843C4F200031B68BC
:105920009BB24BF6BF741C4084F4005484F02004F6
:105930004FF4B842C4F20002A1B248F28003CFF69D
:10594000FF730B439BB2136040F60023C2F20003C7
:105950001B889BB203F01003002B5AD14FF4B843BD
:10596000C4F200034FF4B842C4F20002126892B2CB
:10597000114648F60F720A401A60FFF73BFE4FF4DB
:10598000B843C4F200031B689BB24BF6BF741C40C3
:1059900040F65E23C2F200031B889BB203F48053DF
:1059A0009BB2002B01D084F4805440F65E23C2F2F7
:1059B00000031B889BB203F400539BB2002B01D061
:1059C00084F4005440F66023C2F200031B889BB2AB
:1059D00003F010039BB2002B01D084F0100440F6BA
:1059E0006023C2F200031B889BB203F020039BB22A
:1059F000002B01D084F020044FF4B842C4F200021E
:105A0000A1B248F28003CFF6FF730B439BB2136041
:105A10004BE14FF4B843C4F200031B689BB2FB8018
:105A2000FB889BB203F40063002B5AD04FF4B843B9
:105A3000C4F200034FF4B842C4F20002126892B2FA
:105A4000114640F68F720A401A60FFF743FD4FF48B
:105A5000B843C4F200031B689BB24BF6BF741C40F2
:105A600040F65E23C2F200031B889BB203F480530E
:105A70009BB2002B01D084F4805440F65E23C2F226
:105A800000031B889BB203F400539BB2002B01D090
:105A900084F4005440F66023C2F200031B889BB2DA
:105AA00003F010039BB2002B01D084F0100440F6E9
:105AB0006023C2F200031B889BB203F020039BB259
:105AC000002B01D084F020044FF4B842C4F200024D
:105AD000A1B248F28003CFF6FF730B439BB2136071
