:020000040800F2
:1000000000500020110F0008B10F0008BD0F0008BC
:10001000C50F0008CD0F0008D50F00080000000034
:10002000000000000000000000000000DD0F0008DC
:10003000E90F000800000000F50F0008011000089B
:10004000590F00085B0F00085D0F00085F0F0008E4
:10005000610F0008630F0008650F0008670F0008B4
:10006000690F00086B0F00086D0F0008A50200085B
:10007000710F0008730F0008750F0008770F000854
:10008000790F00087B0F00087D0F00087F0F000824
:100090000D100008830F0008850F0008870F000867
:1000A000890F0008650200088D0F00088F0F0008F7
:1000B000910F0008930F0008950F0008970F000894
:1000C000990F00089B0F00089D0F00089F0F000864
:1000D000A10F0008A30F0008A50F0008A70F000834
:1000E000A90F0008AB0F00081910000810B5054C47
:1000F000237833B9044B13B10448AFF300800123D4
:10010000237010BD64050020000000001098000856
:1001100008B5064B1BB106480649AFF300800648F8
:10012000036813B1054B03B1984708BD00000000F8
:1001300010980008680500206005002000000000FD
:10014000154B002B08BF134B9D46A3F5803A0021A9
:100150008B460F461348144A121A09F01BFA0F4B2C
:10016000002B00D098470E4B002B00D09847002062
:10017000002104460D4600200C490022002309F00E
:1001800063F909F0DFF92046294600F001FE09F085
:10019000B3F900BF0000080000500020000000007C
:1001A00000000000640500206E0A00201995000878
:1001B00080B483B000AF0346FB714FF46143CEF2CD
:1001C000000397F907204FEA5212F97901F01F0155
:1001D0004FF0010000FA01F143F8221007F10C077B
:1001E000BD4680BC704700BF80B400AF4FF008032D
:1001F000C4F2020342F2A0021A604FF00803C4F2F4
:10020000020340F20402C2F200021268002A05D082
:1002100040F20402C2F20002126801E04FF0010253
:100220005A604FF00803C4F2020342F24D42C4F296
:1002300001029A604FF00803C4F2020340F6FC1278
:10024000C2F20002DA604FF00803C4F202034FF07A
:100250000802C4F20202126842F003021A60BD46AC
:1002600080BC704780B400AF4FF43053C4F2010338
:100270004FF43052C4F20102128A92B222F001020B
:1002800092B21A8240F29053C2F200031B6803F14B
:10029000010240F29053C2F200031A60BD4680BCD6
:1002A000704700BF80B582B000AF4FF43053C4F246
:1002B00001039B8C9AB240F28C53C2F200031A8065
:1002C0004FF000037B604FF000037B6025E040F2BD
:1002D0008053C2F20003186840F28853C2F2000350
:1002E0001A6840F6FC13C2F2000379685B181B78A9
:1002F000D9B240F2F453C2F200034FEA80108018E2
:100300001B18197002F1010240F28853C2F2000377
:100310001A607B6803F101037B6040F20403C2F2C0
:1003200000031B687A689A42D1D340F28853C2F224
:1003300000031B683F2B20D940F28853C2F2000310
:100340004FF000021A6040F28053C2F200031B68B3
:1003500003F1010240F28053C2F200031A6040F23E
:100360008053C2F200031B680F2B06D940F2805362
:10037000C2F200034FF000021A604FF0020002F0D8
:1003800063FF07F10807BD4680BD00BF80B582B09E
:1003900000AF4FF00B033B714FF002037B714FF046
:1003A0000003BB714FF00103FB7107F10403184612
:1003B00001F088FE4FF001004FF0010103F0AEFFA5
:1003C000FFF712FF4FF41053C4F201034FF4105221
:1003D000C4F20102926842F480729A6007F1080741
:1003E000BD4680BD80B584B000AF4FF00003BB6058
:1003F0004FF000037B604FF00800C4F202004FF0A2
:10040000000102F04FFE4FF00003FB601BE040F2E2
:100410000803C2F20003FA689B181B78012B0ED167
:10042000BA6813464FEA83039B18FA6802FA03F38B
:100430007A6813437B60BB6803F10103BB60FB6810
:1004400003F10103FB60FB68032BE0D940F20403D6
:10045000C2F20003BA681A60BB68002B10D04FF4D8
:100460001053C4F20103BA6802F1FF324FEA02529C
:10047000DA624FF41053C4F201037A685A630DE054
:100480004FF41053C4F201034FF00002DA624FF44C
:100490001053C4F201034FF000025A63FFF776FFD6
:1004A00007F11007BD4680BD80B582B000AF4FF0A8
:1004B0000C004FF0010103F05BFF4FF440733B80F1
:1004C0004FF01003FB704FF00203BB703B464FF43C
:1004D0004060C4F20100194603F0D6F84FF00F0354
:1004E0003B804FF00003FB703B464FF40060C4F2CA
:1004F0000100194603F0C8F84FF48053C4F2020318
:100500004FF48052C4F20202526842F400425A6030
:100510004FF400704FF0010103F02AFF4FF4105325
:10052000C4F201034FF41052C4F20102926842F087
:1005300004029A6000BF4FF41053C4F201039B6899
:1005400003F00403002BF6D04FF41053C4F2010360
:100550004FF41052C4F20102126942F4DB6242F01D
:1005600003021A614FF41053C4F201034FF4105206
:10057000C4F20102526842F480725A604FF4105380
:10058000C4F201034FF41052C4F20102926842F423
:10059000006242F002029A60FFF724FF4FF410530A
:1005A000C4F201034FF41052C4F20102926842F007
:1005B00001029A604FF000037B6003E07B6803F167
:1005C00001037B607A6840F2E7339A42F6DD4FF42C
:1005D0001053C4F201034FF41052C4F201029268A6
:1005E00042F001029A6007F10807BD4680BD00BFD6
:1005F00080B582B000AF40F609004FF0010103F072
:10060000B7FE4FF007004FF0010103F0DBFE4FF0A3
:100610006003BB804FF01803FB714FF00303BB7105
:1006200007F104034FF44060C4F20100194603F0DF
:100630002BF84FF40060C0F21A004FF0010103F0F4
:1006400007FA4FF43053C4F201034FF000021A8549
:100650004FF43053C4F201034FF6FF729A854FF402
:100660003053C4F201034FF43052C4F201029289B4
:1006700092B242F0010292B29A814FF43053C4F226
:1006800001034FF43052C4F20102128892B242F0D8
:10069000010292B21A804FF01900FFF789FD4FF462
:1006A0008063C4F200034FF48062C4F20002128837
:1006B00092B242F0800292B21A804FF48063C4F288
:1006C00000034FF48062C4F20002128B92B242F433
:1006D000006292B21A834FF48063C4F200034FF4B5
:1006E0008062C4F20002128B92B242F4C04292B213
:1006F0001A834FF48063C4F200034FF002021A859C
:100700004FF48063C4F200034FF6FF129A854FF452
:100710008063C4F2000343F290321A874FF480637F
:10072000C4F200034FF48062C4F20002128C92B251
:1007300042F0100292B21A844FF48063C4F20003B4
:100740004FF48062C4F20002128892B242F00102B9
:1007500092B21A804FF40063C4F200034FF40062B7
:10076000C4F20002128892B242F0800292B21A8061
:100770004FF40063C4F200034FF40062C4F20002BD
:10078000128B92B242F0080292B21A834FF40063C5
:10079000C4F200034FF40062C4F20002128B92B262
:1007A00042F0600292B21A834FF40063C4F2000375
:1007B0004FF002021A854FF40063C4F200034FF6B3
:1007C000FF129A854FF40063C4F2000344F6E86216
:1007D0009A864FF40063C4F200034FF40062C4F23F
:1007E0000002128C92B242F0010292B21A844FF4CB
:1007F0000063C4F200034FF40062C4F200021288E6
:1008000092B242F0010292B21A8007F10807BD4687
:1008100080BD00BF80B582B000AF4FF010004FF038
:10082000010103F0A5FD4FF08003BB804FF00303EF
:10083000BB714FF01403FB7107F104034FF48050B8
:10084000C4F20100194602F01FFF4FF4802002F0AD
:1008500067FE40F6F413C2F200034FF480221A60E0
:1008600040F6F413C2F200034FF008025A7140F64A
:10087000F413C2F200034FF001029A7140F6F41033
:10088000C2F2000002F026FDFFF70EFEFFF7B0FEF9
:1008900007F10807BD4680BD80B500AF4FF00000EE
:1008A00003F0BCFB4FF400004FF0010103F08AFDA0
:1008B00080BD00BF80B400AF40F2A453C2F2000379
:1008C0004FF003021A60BD4680BC704780B582B00D
:1008D00000AF40F64423C2F200037B607B689B7A42
:1008E000002B07D040F2A453C2F200034FF00502E0
:1008F0001A6006E040F2A453C2F200034FF0010276
:100900001A6000F091FB07F10807BD4680BD00BFEB
:1009100080B582B000AF4FF4A06001F0BFFB4FF094
:1009200014033B714FF002037B714FF00003BB7166
:100930004FF00103FB7107F10403184601F0C2FBFD
:100940004FF02A033B714FF001037B7107F1040361
:10095000184601F0B7FB07F10807BD4680BD00BF90
:1009600080B582B000AF0346FB71FB79002B08D045
:100970004FF48050C4F201004FF0800102F0D8FF24
:1009800007E04FF48050C4F201004FF0800102F004
:10099000C1FF07F10807BD4680BD00BF80B584B028
:1009A00000AF4FF2E873C1F6FF731B68FB604FF2B4
:1009B000EC73C1F6FF731B68BB604FF2F073C1F6B6
:1009C000FF731B687B60FA687B68D318FB60FB6869
:1009D000002B0BD0F86807494FF0080200F00EF822
:1009E000B86805494FF0040200F008F807F1100755
:1009F000BD4680BD2A0000203A00002080B487B0A8
:100A000000AFF860B9601346FB714FF00003FB754F
:100A10004FF00003FB7531E0FB684FEA1373092BBD
:100A20000DD8FB7D4FEA4303BA68D318FA684FEA42
:100A30001272D2B202F13002D2B21A700CE0FB7D17
:100A40004FEA4303BA68D318FA684FEA1272D2B277
:100A500002F13702D2B21A70FB684FEA0313FB604F
:100A6000FB7D4FEA430303F10103BA68D3184FF04B
:100A700000021A70FB7D03F10103FB75FA7DFB791F
:100A80009A42C9D307F11C07BD4680BC704700BF1E
:100A900080B582B000AF78600B46FB704FF001006C
:100AA00007F0AAFB034603F48043002B11D0FB7828
:100AB0009BB278684FF0C0011A4607F08DFAFB78B8
:100AC0009BB24FF001004FF002011A4608F076FA8F
:100AD00010E0FB789BB278684FF480711A4607F0FB
:100AE0007BFAFB789BB24FF001004FF002011A46EF
:100AF00008F0CCFA4FF001004FF0020108F0BCFB07
:100B00004FF0010007F09CFC40F20C03C2F200031E
:100B10004FF000021A604FF00003184607F1080773
:100B2000BD4680BD80B500AF40F21003C2F20003A5
:100B30004FF000021A604FF0030007F0ADFC4FF0D9
:100B40000103184680BD00BFB0B592B000AF4FF4AE
:100B50001053C4F201034FF41052C4F20102926820
:100B600022F480729A604FF001033B714FF0000352
:100B70007B714FF001033B7107F1040303F10302A2
:100B800049F23C73C0F6000315461C460FCC2860A2
:100B90006960AA60EB602068286100BF40F20C0326
:100BA000C2F200031B68012BF8D14FF000037B64F5
:100BB00003E07B6C03F101037B647A6C42F20F73F8
:100BC0009A42F6DD07F1040318464FF04001FFF7A3
:100BD0005FFF4FF41053C4F201034FF41052C4F2FC
:100BE0000102926842F480729A6007F14807BD469C
:100BF000B0BD00BF80B400AF40F2B453C2F20003F6
:100C00001B78DBB2412B41D140F2B453C2F2000356
:100C10005B78DBB2542B39D140F2B453C2F20003FB
:100C20009B78DBB24C2B34D140F2B453C2F20003B8
:100C3000DB78DBB2312B2CD140F2B453C2F200038B
:100C40001B79DBB2312B0CD14FF44063C4F20103AA
:100C50004FF44062C4F20102D26822F40072DA60FA
:100C600016E040F2B453C2F200031B79DBB2302B22
:100C70000ED14FF44063C4F201034FF44062C4F25A
:100C80000102D26842F40072DA6001E000BF00E0C5
:100C900000BFBD4680BC704780B483B000AF4FF446
:100CA0008053C4F201039B6803F400534FEA5333AB
:100CB0007B604FF40063C4F201039B6803F0C00340
:100CC0004FEA53137A6813437B604FF44063C4F2D6
:100CD00001039B6803F007034FEAC3037A681343D9
:100CE0007B604FF44063C4F201039B6803F47C43D0
:100CF0004FEA13137A6813437B607B68184607F149
:100D00000C07BD4680BC704780B582B000AF4FF085
:100D100004004FF0010103F02BFB4FF008004FF0EF
:100D2000010103F025FB4FF010004FF0010103F02B
:100D30001FFB4FF40053BB804FF04803FB714FF093
:100D40000203BB7107F104034FF48050C4F20100A9
:100D5000194602F099FC4FF0C003BB8007F1040371
:100D60004FF40060C4F20100194602F08DFC4FF60A
:100D70000743BB8007F104034FF44060C4F2010055
:100D8000194602F081FC07F10807BD4680BD00BF8F
:100D900080B582B000AF4FF000037B60FFF73AFDF3
:100DA000FFF77AFDFFF7B4FD06F032FEFFF7ACFF68
:100DB0004FF44063C4F201034FF44062C4F20102F5
:100DC000D26882F48072DA604FF000037B6000E04A
:100DD00000BFFFF761FF024640F60423C2F20003A2
:100DE0001A6040F2A453C2F200031B68052B6DD1B8
:100DF00040F60823C2F200031B68002B28D0FFF73F
:100E0000F9FE40F2B453C2F200034FF0A50283F89A
:100E10003F204FF000033B600EE03B684FEA830247
:100E200040F2B453C2F20003D3184FF000021A602C
:100E30003B6803F101033B603B680F2BEDD9FFF7E3
:100E400071FE40F60823C2F200034FF000021A6060
:100E500040F20C03C2F200031B68012B36D140F2B2
:100E60008453C2F200031A6840F28053C2F20003B6
:100E70001B689A422AD040F28453C2F200031B68D6
:100E80004FEA831240F2F453C2F20003D31818461B
:100E90004FF04001FFF7FCFD40F28453C2F2000323
:100EA0001B6803F1010240F28453C2F200031A608E
:100EB00040F28453C2F200031B680F2B06D940F2A4
:100EC0008453C2F200034FF000021A607A684FF6B2
:100ED000FF73C0F203039A4294BF00230123DBB2E5
:100EE0007A6802F101027A60002B3FF471AF4FF48F
:100EF0004063C4F201034FF44062C4F20102D268BD
:100F000082F48072DA604FF000037B6060E700BF1C
:100F10000749084A084B9A42BEBF51F8040B42F8F1
:100F2000040BFFF7F8BF054880470548004700005D
:100F30001C9800080000002060050020291000080F
:100F400041010008FEE7FEE7FEE7FEE7FEE7FEE7F9
:100F5000FEE7FEE7FEE7FEE7FEE7FEE7FEE7FEE769
:100F6000FEE7FEE7FEE7FEE7FEE7FEE7FEE7FEE759
:100F7000FEE7FEE7FEE7FEE7FEE7FEE7FEE7FEE749
:100F8000FEE7FEE7FEE7FEE7FEE7FEE7FEE7FEE739
:100F9000FEE7FEE7FEE7FEE7FEE7FEE7FEE7FEE729
:100FA000FEE7FEE7FEE7FEE7FEE7FEE7FEE700BF3F
:100FB00080B400AFBD4680BC704700BF80B400AFB6
:100FC000FEE700BF80B400AFFEE700BF80B400AF13
:100FD000FEE700BF80B400AFFEE700BF80B400AF03
:100FE000BD4680BC704700BF80B400AFBD4680BC2A
:100FF000704700BF80B400AFBD4680BC704700BFE3
:1010000080B400AFBD4680BC704700BF80B500AF64
:1010100000F00EFA80BD00BF80B500AF4FF4802015
:1010200002F07EFA80BD00BF80B500AF4FF4805360
:10103000C4F202034FF48052C4F20202126842F07A
:1010400001021A604FF48052C4F202024FF480533E
:10105000C4F2020359684FF00003CFF6FF030B40C0
:1010600053604FF48053C4F202034FF48052C4F231
:101070000202126822F0847222F480321A604FF465
:101080008053C4F202034FF48052C4F20202126889
:1010900022F480221A604FF48053C4F202034FF40A
:1010A0008052C4F20202526822F4FE025A604FF4E7
:1010B0008053C4F202034FF41F029A6000F0ACF8B0
:1010C0004FF46D43CEF200034FF000629A6080BD92
:1010D00080B485B000AF4FF00003FB604FF0000319
:1010E000BB604FF000037B604FF48053C4F20203F7
:1010F0005B6803F00C03FB60FB68042B0DD0082B2E
:1011000015D0002B5CD140F21403C2F200034FF45F
:101110009052C0F27A021A605CE040F21403C2F20C
:1011200000034FF49052C0F27A021A6052E04FF47A
:101130008053C4F202035B6803F47013BB604FF486
:101140008053C4F202035B6803F480337B60BB68A6
:101150004FEA934303F10203BB607B68002B0CD181
:10116000BA684FF41063C0F23D0303FB02F240F291
:101170001403C2F200031A602CE04FF48053C4F24F
:1011800002035B6803F40033002B0CD0BA684FF401
:101190001063C0F23D0303FB02F240F21403C2F2FB
:1011A00000031A6016E0BA684FF49053C0F27A0355
:1011B00003FB02F240F21403C2F200031A6009E0DA
:1011C00040F21403C2F200034FF49052C0F27A02CC
:1011D0001A6000BF4FF48053C4F202035B6803F04F
:1011E000F0034FEA131240F21803C2F200039B5CB3
:1011F000DBB2FB6040F21403C2F200031A68FB6822
:1012000022FA03F240F21403C2F200031A6007F15B
:101210001407BD4680BC704780B500AF00F002F8EF
:1012200080BD00BF80B483B000AF4FF000037B608F
:101230004FF000033B604FF48053C4F202034FF4BD
:101240008052C4F20202126842F480321A604FF4F3
:101250008053C4F202031B6803F400333B607B68D5
:1012600003F101037B603B68002B03D17B68B3F57E
:10127000A06FECD14FF48053C4F202031B6803F457
:101280000033002B03D04FF001033B6002E04FF02E
:1012900000033B603B68012B40F094804FF4005307
:1012A000C4F202034FF40052C4F20202126842F088
:1012B00010021A604FF40053C4F202034FF40052BC
:1012C000C4F20202126822F003021A604FF40053C3
:1012D000C4F202034FF40052C4F20202126842F058
:1012E00002021A604FF48053C4F202034FF480529A
:1012F000C4F2020252685A604FF48053C4F20203EF
:101300004FF48052C4F2020252685A604FF4805384
:10131000C4F202034FF48052C4F20202526842F453
:1013200080625A604FF48053C4F202034FF480523B
:10133000C4F20202526822F47C125A604FF48053C5
:10134000C4F202034FF48052C4F20202526842F423
:10135000E8125A604FF48053C4F202034FF48052F3
:10136000C4F20202126842F080721A6000BF4FF4A9
:101370008053C4F202031B6803F00073002BF6D005
:101380004FF48053C4F202034FF48052C4F20202BD
:10139000526822F003025A604FF48053C4F20203F1
:1013A0004FF48052C4F20202526842F002025A60C4
:1013B00000BF4FF48053C4F202035B6803F00C03D8
:1013C000082BF6D107F10C07BD4680BC704700BF63
:1013D00080B400AF40F20C03C2F200034FF00102F0
:1013E0001A60BD4680BC704780B500AF40F2100364
:1013F000C2F200034FF001021A604FF0030007F041
:101400002FFC03461A4640F60823C2F200031A6076
:1014100040F60823C2F200031B689BB240F2B450AE
:10142000C2F200004FF4A8711A4606F019FE80BD02
:1014300080B58AB000AF4FF000037B6245F64443AD
:10144000C4F200031B689AB240F60C23C2F20003F8
:101450001A8040F60C23C2F200031B889BB203F4EF
:10146000007240F66823C2F200031B881340002B71
:1014700014D045F64443C4F200034FF6FF521A60FD
:1014800040F29453C2F200031B78DBB203F1010374
:10149000DAB240F29453C2F200031A7040F60C2301
:1014A000C2F200031B889BB203F4004240F668239B
:1014B000C2F200031B881340002B01D006F0D6FABD
:1014C00040F60C23C2F200031B889BB203F4806237
:1014D00040F66823C2F200031B881340002B0CD097
:1014E00045F64443C4F200034FF6FF321A6040F25F
:1014F0008803C2F200035B68984740F60C23C2F2EF
:1015000000031B889BB203F4005240F66823C2F22A
:1015100000031B881340002B06D045F64443C4F259
:1015200000034DF6FF721A6040F60C23C2F200036E
:101530001B889BB203F4805240F66823C2F200037A
:101540001B881340002B0AD045F64443C4F2000325
:101550004EF6FF721A604FF0000000F0BDFC40F63E
:101560000C23C2F200031B889BB203F4006240F616
:101570006823C2F200031B881340002B15D040F2F1
:101580000C13C2F200031B78DBB2002B02D000F078
:1015900083FB03E04FF0020000F09EFC45F644435D
:1015A000C4F200034FF2FF721A6040F60C23C2F23D
:1015B00000031B889BB203F4807240F66823C2F2DA
:1015C00000031B881340002B00F0C88045F64443FD
:1015D000C4F200034FF6FF621A6045F64843C4F2B6
:1015E00000031B689BB21BB2002B80F2AC8040F260
:1015F0009853C2F200031B6803F1010240F29853B2
:10160000C2F200031A6040F29853C2F200031B6852
:10161000032B40F29F8045F64043C4F200031B6851
:101620009BB203F00803002B40F0948045F6404342
:10163000C4F200031B689BB21A4640F29C53C2F2EC
:1016400000031A604FF000037B6215E07B6A4FEAEB
:10165000830303F1804303F5B8431B689BB21A462A
:101660007B6A4FEA830307F12801CB1843F8242C47
:101670007B6A03F101037B627B6A072BE6D940F2A8
:101680009C53C2F200031B6843F0010240F29C53DA
:10169000C2F200031A6045F64043C4F2000340F270
:1016A0009C52C2F20002126892B21A6040F29C533D
:1016B000C2F200031B6823F0010240F29C53C2F205
:1016C00000031A6045F64043C4F2000340F29C5206
:1016D000C2F20002126892B21A6000BF45F644439B
:1016E000C4F200031B689BB203F48063002BF5D0A7
:1016F00045F64443C4F200034FF6FF321A604FF040
:1017000000037B6214E07B6A4FEA830303F18043AA
:1017100003F5B8437A6A4FEA820207F128018A1872
:1017200052F8242C92B21A607B6A03F101037B62A7
:101730007B6A072BE7D940F29853C2F200034FF0BF
:1017400000021A6006E040F29853C2F200034FF024
:1017500000021A604FF0070000F0BEFB07F12807F7
:10176000BD4680BD80B500AFFFF718F940F6642391
:10177000C2F200031B684FF000029A7200F02CFACC
:1017800007F0F2FD40F2A453C2F200034FF0000252
:101790001A6080BD80B500AF40F66423C2F200033A
:1017A0001B684FF000029A7240F66423C2F20003F5
:1017B0001A6849F26473C0F60003DB79537240F68D
:1017C0006423C2F200031B684FF00002DA724FF08C
:1017D000000006F0DBFC4FF000004FF4007106F053
:1017E0001FFD4FF000004FF0100106F057FD4FF0C5
:1017F00000004FF0400107F007F94FF000004FF0F4
:10180000800107F0DDF84FF0000006F0C9FE40F25D
:101810008803C2F2000393F82C304FF00000194601
:1018200007F0AEF94FF0000006F036FE4FF0010071
:101830004FF0000106F0F4FC4FF0010006F008FF45
:101840004FF001004FF0C0014FF4807207F02CFA06
:1018500040F28803C2F2000393F82C304FF00100ED
:101860004FF002011A4607F0E7FA4FF0010007F0C7
:1018700037F84FF0010007F003F84FF0010006F0D1
:10188000B7FF4FF001004FF0200106F007FD4FF0C9
:1018900001004FF0000106F03BFD4FF002004FF455
:1018A000C06106F0BDFC4FF002004FF4A07107F0DC
:1018B00087F84FF002004FF0000106F029FD4FF0CD
:1018C00002004FF0200106F0E9FC4FF003004FF05A
:1018D000000106F0A5FC4FF003004FF4A87107F0DB
:1018E00093F84FF003004FF0400107F049F94FF033
:1018F00003004FF4405106F00BFD4FF003004FF092
:10190000000106F0CBFC4FF0000006F037F840F283
:10191000A453C2F200034FF001021A6080BD00BF61
:1019200080B483B000AF40F64423C2F200037B6072
:101930007B689B7A002B06D040F2A453C2F20003CE
:101940004FF005021A6007F10C07BD4680BC7047D6
:1019500080B400AF40F2A453C2F200034FF004027F
:101960001A60BD4680BC704780B400AF40F2A053FF
:10197000C2F200031B78202B06D140F2A053C2F222
:1019800000034FF000021A70BD4680BC704700BFD4
:1019900080B400AFBD4680BC704700BF80B584B046
:1019A00000AF0346FB714FF00003FB60FB79212B76
:1019B0000FD140F66423C2F200031B681B7803F0CA
:1019C0007F03212B1ED141F66133C0F60003FB607B
:1019D00018E0FB79202B15D140F66423C2F20003F6
:1019E0001B681B7803F07F03212B04D141F69D3344
:1019F000C0F60003FB6040F2A053C2F200034FF0B8
:101A000020021A70FB68002B02D14FF0020314E091
:101A100040F66423C2F200031B68FA689A6140F63C
:101A20006423C2F200031B684FF000025A82FB6875
:101A30004FF0000098474FF00003184607F11007D9
:101A4000BD4680BD80B483B000AF0346FB7140F655
:101A50006423C2F200031B681B7803F07F03212B71
:101A60000BD1FB79022B02D14FF0000307E0FB7989
:101A7000222B02D14FF0000301E04FF00203184681
:101A800007F10C07BD4680BC704700BF80B582B02F
:101A900000AF0346FB80FB88184640F2DC01C2F22F
:101AA000000105F04FF90346184607F10807BD4647
:101AB00080BD00BF80B582B000AF0346FB80FB88CD
:101AC000184640F2E401C2F2000105F03BF903467A
:101AD000184607F10807BD4680BD00BF80B584B039
:101AE00000AF0346FB8040F66423C2F200031B688C
:101AF000DB78FB73FB7B042B02D94FF000030DE076
:101B0000FB7B4FEAC30240F2EC03C2F20003D3189E
:101B1000FA881046194605F015F90346184607F1EC
:101B20001007BD4680BD00BF80B483B000AF024641
:101B30000B46FA71BB71BB79002B02D04FF0020348
:101B400007E0FB79012B02D94FF0020301E04FF0CF
:101B50000003184607F10C07BD4680BC704700BF64
:101B600080B483B000AF0346FB80FB88002B0AD112
:101B700040F66423C2F200031B684FF008021A8289
:101B80004FF0000303E040F27C03C2F2000318466A
:101B900007F10C07BD4680BC704700BF80B483B01E
:101BA00000AF0346FB80FB88002B0AD140F664237C
:101BB000C2F200031B684FF008021A824FF00003C4
:101BC00003E040F27C03C2F20003184607F10C0761
:101BD000BD4680BC704700BF80B582B000AF4FF0FB
:101BE0000100FEF7BDFE4FF00103FB8045F64043C8
:101BF000C4F20003FA881A6040F66823C2F20003B8
:101C00004FF000021A8045F64043C4F2000340F64C
:101C10006822C2F2000212881A6045F64443C4F2F8
:101C200000034FF000021A6040F66823C2F200037E
:101C30004FF4E0521A8045F64043C4F2000340F6E8
:101C40006822C2F2000212881A604FF000031846A0
:101C500007F10807BD4680BD80B500AF45F640439B
:101C6000C4F200034FF001021A6045F64443C4F287
:101C700000034FF000021A604FF00000FEF770FE04
:101C800045F64043C4F200034FF003021A604FF0E0
:101C90000003184680BD00BF80B485B000AF4FF090
:101CA0000003FB604FF00003BB604FF000033B609C
:101CB00045F64043C4F200031B68FB804FF000036D
:101CC000FB6014E0FB684FEA830303F1804303F5F4
:101CD000B8431B689BB2194640F61423C2F20003B6
:101CE000FA6843F82210FB6803F10103FB60FB680C
:101CF000072BE7D9FB8843F48063FB8045F640431C
:101D0000C4F20003FA881A60FB8843F00103FB80E9
:101D100045F64043C4F20003FA881A60FB8823F0BA
:101D20000103FB8045F64043C4F20003FA881A60C1
:101D300000BF45F64443C4F200031B689BB203F4A2
:101D40008063002BF5D045F64443C4F200034FF600
:101D5000FF321A604FF00003FB6013E0FB684FEAAC
:101D6000830303F1804303F5B84340F61422C2F223
:101D70000002F96852F8212092B21A60FB6803F160
:101D80000103FB60FB68072BE8D9FB8843F00803DD
:101D9000FB8045F64043C4F20003FA881A6045F61A
:101DA0004043C4F200031B68FB80FB8843F004033C
:101DB000FB8045F64043C4F20003FA881A604FF4F2
:101DC000E043C4F200031B683B604FF4E043C4F2FD
:101DD00000031B68BB60BB6823F00303BB60BB68E8
:101DE00043F00103BB604FF4E043C4F20003BA6860
:101DF0001A604FF46D43CEF200034FF46D42CEF201
:101E00000002126942F004021A6145F64443C4F22A
:101E100000031B689BB203F48053002B0DD130BF2D
:101E20004FF46D43CEF200034FF46D42CEF2000248
:101E3000126922F004021A6128E045F64443C4F214
:101E400000034EF6FF721A6045F64043C4F20003E9
:101E50001B68FB80FB8823F00803FB8045F64043AA
:101E6000C4F20003FA881A604FF4E043C4F200039E
:101E70003A681A604FF46D43CEF200034FF46D429E
:101E8000CEF20002126922F004021A6107F114076F
:101E9000BD4680BC704700BF80B582B000AF45F63C
:101EA0004043C4F200031B68FB80FB8823F004035B
:101EB000FB8045F64043C4F20003FA881A60FEF73F
:101EC00005FD45F64043C4F200034FF43F421A605B
:101ED00007F10807BD4680BD80B584B000AF03465A
:101EE000FB71FB79072B05D040F61023C2F20003EB
:101EF000FA791A7040F61023C2F200031B78DBB2A5
:101F0000052B00F2BA8001A252F823F0251F000829
:101F1000571F0008791F0008971F0008D31F0008EB
:101F20001120000840F2A853C2F200031B68002BE6
:101F300009D1FFF7B1FF40F61023C2F200034FF0C2
:101F400006021A70A5E040F61023C2F200034FF01B
:101F500005021A709DE0FFF79FFF40F61023C2F2C2
:101F600000034FF004021A7040F2A853C2F20003BB
:101F70004FF001021A608CE040F61023C2F2000319
:101F80004FF002025A7040F61023C2F200034FF0E5
:101F900003021A707DE040F61023C2F200035B7862
:101FA000DBB203F1FF33DAB240F61023C2F20003D2
:101FB0005A7040F61023C2F200035B78DBB2002BAC
:101FC00064D140F61023C2F200034FF004021A70ED
:101FD0005CE045F64043C4F200031B68FB81FB89CB
:101FE00043F01003FB8145F64043C4F20003FA8935
:101FF0001A6040F61023C2F200034FF005021A7077
:1020000040F61023C2F200034FF00A025A7040E07B
:1020100040F61023C2F200035B78DBB203F1FF331A
:10202000DAB240F61023C2F200035A7040F61023D1
:10203000C2F200035B78DBB2002B29D145F64043A6
:10204000C4F200031B68FB81FB8923F01003FB81B2
:1020500045F64043C4F20003FA891A6040F61023A3
:10206000C2F200034FF006021A7040F2A853C2F207
:1020700000034FF000021A600AE040F61023C2F29B
:1020800000034FF006021A7000BF02E000BF00E03C
:1020900000BF07F11007BD4680BD00BF80B483B00C
:1020A00000AF78604FF46D43CEF200037A6842F0DF
:1020B000BF6242F40032DA6007F10C07BD4680BC13
:1020C000704700BF80B487B000AF78604FF0000366
:1020D0007B614FF000033B614FF00F03FB607B68B7
:1020E000DB78002B47D04FF46D43CEF20003DB6862
:1020F0006FEA030303F4E0634FEA13237B617B6918
:10210000C3F104033B617B69FA6822FA03F3FB60C5
:102110007B685B781A463B6902FA03F37B617B6854
:102120009B781A46FB6813407A6913437B617B698D
:102130004FEA03137B614FF46143CEF200037A68E8
:10214000127811467A69D2B25B1883F800234FF4F3
:102150006143CEF200037A6812784FEA5212D2B28B
:102160007968097801F01F014FF0010000FA01F1D0
:1021700043F8221014E04FF46143CEF200037A6872
:1021800012784FEA5212D2B27968097801F01F0131
:102190004FF0010000FA01F102F1200243F8221091
:1021A00007F11C07BD4680BC704700BF80B483B0F8
:1021B00000AF786039604FF46D43CEF200033A68A7
:1021C00022F0604222F07F0279680A439A6007F1A8
:1021D0000C07BD4680BC704780B483B000AF024698
:1021E0000B46FA71BB71BB79002B0CD04FF46D43D9
:1021F000CEF200034FF46D42CEF200021169FA797B
:102200000A431A610DE04FF46D43CEF200034FF420
:102210006D42CEF200021169FA796FEA02020A40B9
:102220001A6107F10C07BD4680BC704780B483B0CB
:1022300000AF78607B68042B0CD14EF21003CEF215
:1022400000034EF21002CEF20002126842F00402C5
:102250001A600BE04EF21003CEF200034EF21002B1
:10226000CEF20002126822F004021A6007F10C0795
:10227000BD4680BC704700BF80B582B000AF7860BB
:102280007A684FF41053C4F201039A420CD14FF410
:1022900000704FF0010102F0BFF84FF400704FF0F2
:1022A000000102F0B9F826E07A684FF42053C4F236
:1022B00001039A420CD14FF480604FF0010102F00B
:1022C000ABF84FF480604FF0000102F0A5F812E087
:1022D0007A684FF47053C4F201039A420BD14FF461
:1022E00000404FF0010102F097F84FF400404FF02A
:1022F000000102F091F807F10807BD4680BD00BF5C
:1023000080B485B000AF786039604FF00003FB60A7
:102310004FF00003FB727B685B68FB60FB6823F493
:10232000702323F48073FB603B681A683B681B7959
:102330004FEA03231343FA681343FB607B68FA6890
:102340005A607B689B68FB60FA684FF2FD73CFF6BA
:10235000F1731340FB603B68DA683B689B681A4383
:102360003B685B794FEA43031343FA681343FB600E
:102370007B68FA689A607B68DB6AFB60FB6823F421
:102380007003FB603B681B7C03F1FF33DAB2FB7A1E
:102390001343FB72FB7A4FEA0353FA681343FB6063
:1023A0007B68FA68DA6207F11407BD4680BC7047A3
:1023B00080B483B000AF78607B684FF000021A6091
:1023C0007B684FF000021A717B684FF000025A716F
:1023D0007B684FF000029A607B684FF00002DA6081
:1023E0007B684FF001021A7407F10C07BD4680BCF0
:1023F000704700BF80B483B000AF78600B46FB70BD
:10240000FB78002B06D07B689B6843F001027B6859
:102410009A6005E07B689B6823F001027B689A6004
:1024200007F10C07BD4680BC704700BF80B483B085
:1024300000AF78600B46FB70FB78002B06D07B6802
:102440009B6843F480727B689A6005E07B689B68B8
:1024500023F480727B689A6007F10C07BD4680BC4C
:10246000704700BF80B485B000AF786013460A465D
:102470007A807B704FF00003FB737B88FB737B7863
:10248000002B06D07B685A68FB7B1A437B685A6036
:1024900007E07B685A68FB7B6FEA03031A407B689E
:1024A0005A6007F11407BD4680BC704780B483B002
:1024B00000AF78607B689B6843F008027B689A6095
:1024C00007F10C07BD4680BC704700BF80B485B0E3
:1024D00000AF78604FF00003FB737B689B6803F0EC
:1024E0000803002B03D04FF00103FB7302E04FF011
:1024F0000003FB73FB7B184607F11407BD4680BC45
:10250000704700BF80B483B000AF78607B689B6881
:1025100043F004027B689A6007F10C07BD4680BC5B
:10252000704700BF80B485B000AF78604FF0000303
:10253000FB737B689B6803F00403002B03D04FF010
:102540000103FB7302E04FF00003FB73FB7B1846B3
:1025500007F11407BD4680BC704700BF80B483B04C
:1025600000AF78600B46FB70FB78002B06D07B68D1
:102570009B6843F4A0027B689A6005E07B689B68D7
:1025800023F4A0027B689A6007F10C07BD4680BC6B
:10259000704700BF80B485B000AF78604FF0000393
:1025A000FB737B689B6803F48003002B03D04FF020
:1025B0000103FB7302E04FF00003FB73FB7B184643
:1025C00007F11407BD4680BC704700BF80B485B0DA
:1025D00000AF78600B46FB704FF00003FB604FF0DC
:1025E0000003BB607B685B68FB60FB6823F46043AF
:1025F000FB60FB7803F1FF33BB60BB684FEA4333FA
:10260000FA681343FB607B68FA685A6007F11407A5
:10261000BD4680BC704700BF80B483B000AF786017
:102620000B46FB70FB78002B06D07B685B6843F49D
:1026300000627B685A6005E07B685B6823F4006297
:102640007B685A6007F10C07BD4680BC704700BF2D
:1026500080B485B000AF7860F970BA707B704FF0CD
:102660000003FB604FF00003BB60FB78092B27D908
:102670007B68DB68FB60FA7813464FEA43039B18DC
:10268000A3F11E034FF0070202FA03F3BB60BB681D
:102690006FEA0303FA681340FB607978FA7813460F
:1026A0004FEA43039B18A3F11E0301FA03F3BB6037
:1026B000FA68BB681343FB607B68FA68DA6022E063
:1026C0007B681B69FB60FA7813464FEA43039B184B
:1026D0004FF0070202FA03F3BB60BB686FEA030323
:1026E000FA681340FB607978FA7813464FEA43039F
:1026F0009B1801FA03F3BB60FA68BB681343FB60E5
:102700007B68FA681A61BB78062B27D87B685B6BFD
:10271000FB60BB7803F1FF3213464FEA83039B183B
:102720004FF01F0202FA03F3BB60BB686FEA0303BA
:10273000FA681340FB60F978BB7803F1FF32134667
:102740004FEA83039B1801FA03F3BB60FA68BB6886
:102750001343FB607B68FA685A6351E0BB780C2B2B
:1027600027D87B681B6BFB60BA7813464FEA83035C
:102770009B18A3F123034FF01F0202FA03F3BB607F
:10278000BB686FEA0303FA681340FB60F978BA7814
:1027900013464FEA83039B18A3F1230301FA03F3C3
:1027A000BB60FA68BB681343FB607B68FA681A6316
:1027B00026E07B68DB6AFB60BA7813464FEA830346
:1027C0009B18A3F141034FF01F0202FA03F3BB6011
:1027D000BB686FEA0303FA681340FB60F978BA78C4
:1027E00013464FEA83039B18A3F1410301FA03F355
:1027F000BB60FA68BB681343FB607B68FA68DA6207
:1028000007F11407BD4680BC704700BF80B483B099
:1028100000AF78600B46FB70FB78002B06D07B681E
:102820009B6843F480127B689A6005E07B689B6834
:1028300023F480127B689A6007F10C07BD4680BCC8
:10284000704700BF80B483B000AF78607B68DB6CFA
:102850009BB2184607F10C07BD4680BC704700BF0D
:1028600080B400AF42F24C43C4F201031B68184627
:10287000BD4680BC704700BF80B483B000AF7860B5
:102880000B46FB70FB78002B06D07B685B6843F43B
:1028900080627B685A6005E07B685B6823F4806235
:1028A0007B685A6007F10C07BD4680BC704700BFCB
:1028B00080B483B000AF78600B46FB70FB78002BD0
:1028C00006D07B685B6843F480527B685A6005E001
:1028D0007B685B6823F480527B685A6007F10C07C1
:1028E000BD4680BC704700BF80B485B000AF786043
:1028F00039604FF00003FB607B689B68FB60FB68FE
:1029000023F4E043FB60FA683B681343FB607B6899
:10291000FA689A6007F11407BD4680BC704700BF93
:1029200080B483B000AF78600B46FB70FB78002B5F
:1029300006D07B689B6843F400427B689A6005E0A0
:102940007B689B6823F400427B689A6007F10C0760
:10295000BD4680BC704700BF80B483B000AF7860D4
:102960000B46FB70FB78002B06D07B689B6843F41A
:1029700002127B689A6005E07B689B6823F4021270
:102980007B689A6007F10C07BD4680BC704700BFAA
:1029900080B485B000AF78604FF00003FB737B68B4
:1029A0009B6803F40013002B03D04FF00103FB736B
:1029B00002E04FF00003FB73FB7B184607F114079E
:1029C000BD4680BC704700BF80B487B000AF786060
:1029D000F970BA707B704FF000037B614FF0000319
:1029E0003B614FF00003FB60FB78092B27D97B6824
:1029F000DB687B61FA7813464FEA43039B18A3F127
:102A00001E034FF0070202FA03F33B613B696FEAD2
:102A100003037A6913407B617978FA7813464FEAA9
:102A200043039B18A3F11E0301FA03F33B617A6988
:102A30003B6913437B617B687A69DA6022E07B68DB
:102A40001B697B61FA7813464FEA43039B184FF0EA
:102A5000070202FA03F33B613B696FEA03037A69F9
:102A600013407B617978FA7813464FEA43039B1849
:102A700001FA03F33B617A693B6913437B617B682D
:102A80007A691A617B689B6B7B617B6903F44013F5
:102A90004FEA1353FB60FB68DBB26FEA0303DAB261
:102AA000BB78D318DBB203F10303DBB21A4613463B
:102AB0004FEA83039B184FF01F0202FA03F33B61B6
:102AC0003B696FEA03037A6913407B61F978FB681D
:102AD000DBB26FEA0303DAB2BB78D318DBB203F1DF
:102AE0000303DBB21A4613464FEA83039B1801FA2D
:102AF00003F33B617A693B6913437B617B687A69C5
:102B00009A6307F11C07BD4680BC704780B485B04E
:102B100000AF78600B46FB704FF00003FB604FF096
:102B20000003BB607B689B6BFB60FB6823F4401376
:102B3000FB60FB7803F1FF33BB60BB684FEA0353D4
:102B4000FA681343FB607B68FA689A6307F114071D
:102B5000BD4680BC704700BF80B485B000AF7860D0
:102B600013460A46FA703B804FF00003FB607B6817
:102B7000FB60FA78FB68D318FB60FB683A881A6040
:102B800007F11407BD4680BC704700BF80B485B014
:102B900000AF78600B46FB704FF00003FB607B6872
:102BA000FB60FA78FB68D31803F12803FB60FB682D
:102BB0001B689BB2184607F11407BD4680BC7047DE
:102BC00080B485B000AF786039604FF00003FB60DF
:102BD0007B685B68FB60FB6823F4400323F40073AD
:102BE000FB60FA683B681343FB607B68FA685A60D5
:102BF00007F11407BD4680BC704700BF80B483B0A6
:102C000000AF786013460A467A803B807A887B68FA
:102C10005A623A887B689A6207F10C07BD4680BC0D
:102C2000704700BF80B485B000AF78600B46FB7082
:102C30004FF00003FB607B685B68FB60FB6823F080
:102C40001F03FB60FB78FA681343FB607B68FA683C
:102C50005A6007F11407BD4680BC704780B483B04A
:102C600000AF0346FB71FB79002B0CD04FF41053DF
:102C7000C4F201034FF41052C4F20102926842F40C
:102C800000029A600BE04FF41053C4F201034FF4BA
:102C90001052C4F20102926822F400029A6007F115
:102CA0000C07BD4680BC704780B485B000AF78602B
:102CB0000B46FB704FF00003FB737B681A68FB78D0
:102CC0001340002B03D04FF00103FB7302E04FF0E1
:102CD0000003FB73FB7B184607F11407BD4680BC5D
:102CE000704700BF80B483B000AF78600B46FB70C4
:102CF000FB786FEA03027B681A6007F10C07BD4698
:102D000080BC704780B487B000AF78600B467B8092
:102D10004FF00003FB754FF000033B614FF00003E1
:102D2000FB607B884FEA13239BB23B617B685A6848
:102D30007B88DBB21340FB607B681A683B691340F9
:102D4000002B06D0FB68002B03D04FF00103FB756E
:102D500002E04FF00003FB75FB7D184607F11C07EE
:102D6000BD4680BC704700BF80B485B000AF7860BE
:102D70000B467B804FF00003FB737B884FEA1323E5
:102D80009BB2FB73FB7B6FEA03027B681A6007F15F
:102D90001407BD4680BC704780B483B000AF786034
:102DA0007B681A684FF6FE7313407A6813607B687D
:102DB0004FF000021A607B684FF000025A607B6897
:102DC0004FF000029A607B684FF00002DA607A6888
:102DD0004FF00803C4F202039A420CD14FF00003F3
:102DE000C4F202034FF00002C4F20202526842F041
:102DF0000F025A60DAE07A684FF01C03C4F2020353
:102E00009A420CD14FF00003C4F202034FF00002CB
:102E1000C4F20202526842F0F0025A60C6E07A68D8
:102E20004FF03003C4F202039A420CD14FF000037A
:102E3000C4F202034FF00002C4F20202526842F4EC
:102E400070625A60B2E07A684FF04403C4F2020341
:102E50009A420CD14FF00003C4F202034FF000027B
:102E6000C4F20202526842F470425A609EE07A68EC
:102E70004FF05803C4F202039A420CD14FF0000302
:102E8000C4F202034FF00002C4F20202526842F49C
:102E900070225A608AE07A684FF06C03C4F2020331
:102EA0009A420CD14FF00003C4F202034FF000022B
:102EB000C4F20202526842F470025A6076E07A6804
:102EC0004FF08003C4F202039A420CD14FF000038A
:102ED000C4F202034FF00002C4F20202526842F050
:102EE00070625A6062E07A684FF48163C4F2020350
:102EF0009A420CD14FF48063C4F202034FF4806213
:102F0000C4F20202526842F00F025A604EE07A6840
:102F100040F21C43C4F202039A420CD14FF4806386
:102F2000C4F202034FF48062C4F20202526842F01B
:102F3000F0025A603AE07A684FF48663C4F2020302
:102F40009A420CD14FF48063C4F202034FF48062C2
:102F5000C4F20202526842F470625A6026E07A6853
:102F600040F24443C4F202039A420CD14FF480630E
:102F7000C4F202034FF48062C4F20202526842F4C7
:102F800070425A6012E07A684FF48B63C4F2020315
:102F90009A420BD14FF48063C4F202034FF4806273
:102FA000C4F20202526842F470225A6007F10C0720
:102FB000BD4680BC704700BF80B485B000AF78606C
:102FC00039604FF00003FB607B681B68FB60FB68A7
:102FD00023F4FF4323F07003FB603B689A683B686F
:102FE0001B6A1A433B681B691A433B685B691A43B7
:102FF0003B689B691A433B68DB691A433B685B6A21
:103000001A433B689B6A1343FA681343FB607B686F
:10301000FA681A603B68DA687B685A603B681A682D
:103020007B689A603B685A687B68DA6007F114072E
:10303000BD4680BC704700BF80B483B000AF7860ED
:103040007B684FF000021A607B684FF000025A6004
:103050007B684FF000029A607B684FF00002DA60F4
:103060007B684FF000021A617B684FF000025A61E2
:103070007B684FF000029A617B684FF00002DA61D2
:103080007B684FF000021A627B684FF000025A62C0
:103090007B684FF000029A6207F10C07BD4680BCC6
:1030A000704700BF80B483B000AF78600B46FB7000
:1030B000FB78002B06D07B681B6843F001027B681D
:1030C0001A6006E07B681A684FF6FE7313407A6850
:1030D000136007F10C07BD4680BC704780B485B013
:1030E00000AFF860B9601346FB71FB79002B06D086
:1030F000FB681A68BB681A43FB681A6007E0FB6844
:103100001A68BB686FEA03031A40FB681A6007F18C
:103110001407BD4680BC704780B483B000AF7860B0
:103120000B467B807A887B685A6007F10C07BD46A6
:1031300080BC704780B483B000AF78607B685B6808
:103140009BB2184607F10C07BD4680BC704700BF14
:1031500080B485B000AF78604FF00003FB734FF090
:103160000003BB607B6803F08053002B06D04FF454
:103170008063C4F202031B68BB6005E04FF00003EC
:10318000C4F202031B68BB60BA687B681340002B63
:1031900003D04FF00103FB7302E04FF00003FB7319
:1031A000FB7B184607F11407BD4680BC704700BF83
:1031B00080B483B000AF78607B6803F08053002B4D
:1031C00006D04FF48063C4F202037A685A6005E0C7
:1031D0004FF00003C4F202037A685A6007F10C074B
:1031E000BD4680BC704700BF80B485B000AF78603A
:1031F0004FF00003FB734FF00003BB607B6803F0EC
:103200008053002B06D04FF48063C4F202031B6886
:10321000BB6005E04FF00003C4F202031B68BB6013
:10322000BA687B681340002B03D04FF00103FB7397
:1032300002E04FF00003FB73FB7B184607F1140715
:10324000BD4680BC704700BF80B483B000AF7860DB
:103250007B6803F08053002B06D04FF48063C4F2E8
:1032600002037A685A6005E04FF00003C4F20203DB
:103270007A685A6007F10C07BD4680BC704700BFF2
:1032800080B400AF4FF48063C4F201034FF000023A
:103290001A604FF48063C4F201034FF000025A60D9
:1032A0004FF48063C4F201034FF000029A604FF4C0
:1032B0008063C4F201034FF00002DA604FF48063D0
:1032C000C4F201034FF6FF72C0F20F025A61BD460D
:1032D00080BC704780B485B000AF78604FF00003C9
:1032E000FB604FF48063C4F20103FB607B689B7951
:1032F000002B78D04FF48063C4F201034FF4806256
:10330000C4F2010211687A6812686FEA02020A4088
:103310001A604FF48063C4F201034FF48062C4F278
:10332000010251687A6812686FEA02020A405A6024
:103330007B681B79FA68D318FB60FB68FA68116830
:103340007A6812680A431A604FF48063C4F201037A
:103350004FF48062C4F2010291687A6812686FEAE1
:1033600002020A409A604FF48063C4F201034FF4F2
:103370008062C4F20102D1687A6812686FEA0202C0
:103380000A40DA607B685B79102B1AD14FF48063B6
:10339000C4F201034FF48062C4F2010291687A68BA
:1033A00012680A439A604FF48063C4F201034FF439
:1033B0008062C4F20102D1687A6812680A43DA6056
:1033C0001FE04FF48063C4F20103FB607B685B790C
:1033D000FA68D318FB60FB68FA6811687A681268AB
:1033E0000A431A600DE07B681B79FA68D318FB600A
:1033F000FB68FA6811687A6812686FEA02020A408C
:103400001A6007F11407BD4680BC704780B483B0D2
:1034100000AF78607B684FF000021A607B684FF065
:1034200000021A717B684FF00C025A717B684FF0F2
:1034300000029A7107F10C07BD4680BC704700BFBF
:1034400080B483B000AF78604FF48063C4F20103AE
:103450004FF48062C4F2010211697A680A431A616A
:1034600007F10C07BD4680BC704700BF80B485B033
:1034700000AF78604FF00003FB734FF48063C4F239
:1034800001035A697B681340002B03D04FF00103FE
:10349000FB7302E04FF00003FB73FB7B184607F160
:1034A0001407BD4680BC704780B483B000AF78601D
:1034B0004FF48063C4F201037A685A6107F10C0784
:1034C000BD4680BC704700BF80B485B000AF786057
:1034D0004FF00003FB734FF00003BB604FF48063B9
:1034E000C4F201031A687B681340BB604FF4806329
:1034F000C4F201035A697B681340002B06D0BB68F5
:10350000002B03D04FF00103FB7302E04FF00003E8
:10351000FB73FB7B184607F11407BD4680BC704760
:1035200080B483B000AF78604FF48063C4F20103CD
:103530007A685A6107F10C07BD4680BC704700BF2E
:1035400080B582B000AF78607A684FF40063C4F24F
:1035500001039A420CD14FF004004FF0010100F03A
:103560005BFF4FF004004FF0000100F055FF76E0E4
:103570007A684FF44063C4F201039A420CD14FF0D1
:1035800008004FF0010100F047FF4FF008004FF036
:10359000000100F041FF62E07A684FF48053C4F20A
:1035A00001039A420CD14FF010004FF0010100F0DE
:1035B00033FF4FF010004FF0000100F02DFF4EE000
:1035C0007A684FF4A053C4F201039A420CD14FF031
:1035D00020004FF0010100F01FFF4FF020004FF0DE
:1035E000000100F019FF3AE07A684FF4C053C4F2CA
:1035F00001039A420CD14FF040004FF0010100F05E
:103600000BFF4FF040004FF0000100F005FF26E0F7
:103610007A684FF4E053C4F201039A420CD14FF0A0
:1036200080004FF0010100F0F7FE4FF080004FF0F6
:10363000000100F0F1FE12E07A684FF40053C4F28A
:1036400001039A420BD14FF480704FF0010100F05A
:10365000E3FE4FF480704FF0000100F0DDFE07F153
:103660000807BD4680BD00BF80B500AF4FF0010028
:103670004FF0010100F0D0FE4FF001004FF00001CB
:1036800000F0CAFE80BD00BF80B489B000AF786092
:1036900039604FF00003FB614FF000033B614FF0D6
:1036A0000003BB614FF00003FB604FF000037B6140
:1036B0004FF00003BB603B68DB7803F00F03FB6156
:1036C0003B68DB7803F01003002B04D03B689B7849
:1036D000FA691343FB613B681B88DBB2002B4ED0B9
:1036E0007B681B687B614FF00003BB6141E0BB69F5
:1036F0004FF0010202FA03F3FB603B681B881A4695
:10370000FB6813403B613A69FB689A422DD1BB6963
:103710004FEA8303FB60FB684FF00F0202FA03F3EA
:10372000BB60BB686FEA03037A6913407B61FB6887
:10373000FA6902FA03F37A6913437B613B68DB7829
:10374000282B07D1BB694FF0010202FA03F27B6814
:103750005A610AE03B68DB78482B06D1BB694FF021
:10376000010202FA03F27B681A61BB6903F10103EB
:10377000BB61BB69072BBAD97B687A691A603B6861
:103780001B88FF2B53D97B685B687B614FF000037C
:10379000BB6146E0BB6903F108034FF0010202FA86
:1037A00003F3FB603B681B881A46FB6813403B61D0
:1037B0003A69FB689A4230D1BB694FEA8303FB60E8
:1037C000FB684FF00F0202FA03F3BB60BB686FEABD
:1037D00003037A6913407B61FB68FA6902FA03F319
:1037E0007A6913437B613B68DB78282B08D1BB697E
:1037F00003F108034FF0010202FA03F27B685A61F9
:103800003B68DB78482B08D1BB6903F108034FF014
:10381000010202FA03F27B681A61BB6903F101033A
:10382000BB61BB69072BB5D97B687A695A6007F120
:103830002407BD4680BC704780B483B000AF786079
:103840007B684FF6FF721A807B684FF002029A7015
:103850007B684FF00402DA7007F10C07BD4680BCAC
:10386000704700BF80B485B000AF78600B467B80A6
:103870004FF00003FB737B689A687B881340002B32
:1038800003D04FF00103FB7302E04FF00003FB7322
:10389000FB7B184607F11407BD4680BC704700BF8C
:1038A00080B483B000AF78607B689B689BB2184699
:1038B00007F10C07BD4680BC704700BF80B485B0DF
:1038C00000AF78600B467B804FF00003FB737B6892
:1038D000DA687B881340002B03D04FF00103FB73A1
:1038E00002E04FF00003FB73FB7B184607F114075F
:1038F000BD4680BC704700BF80B483B000AF786025
:103900007B68DB689BB2184607F10C07BD4680BC9C
:10391000704700BF80B483B000AF78600B467B80F7
:103920007A887B681A6107F10C07BD4680BC704736
:1039300080B483B000AF78600B467B807A887B6868
:103940005A6107F10C07BD4680BC704780B483B054
:1039500000AF786013460A467A807B707B78002B34
:1039600003D07A887B681A6102E07A887B685A61A2
:1039700007F10C07BD4680BC704700BF80B483B020
:1039800000AF78600B467B807A887B68DA6007F14D
:103990000C07BD4680BC704780B485B000AF78602E
:1039A0000B467B804FF48033FB607B88FA681343BF
:1039B000FB607B68FA689A617A887B689A617B68A9
:1039C000FA689A617B689B69FB607B689B69FB6016
:1039D00007F11407BD4680BC704700BF80B485B0B6
:1039E00000AF02460B46FA71BB714FF00003FB605B
:1039F0004FF00003C4F201031B68FB60FA684FF646
:103A000080731340FB60FB794FEA0313FA6813439A
:103A1000FB60BB79FA681343FB604FF00003C4F20C
:103A20000103FA681A6007F11407BD4680BC7047AD
:103A300080B483B000AF0346FB714FF01C03C4F2A7
:103A40002023FA791A6007F10C07BD4680BC704745
:103A500080B487B000AF78600B46FB704FF0000376
:103A60003B614FF00003FB604FF000037B614FF0C0
:103A70000003BB607B68002B06DA4FF00003C4F242
:103A80000103DB697B6105E04FF00003C4F2010331
:103A90005B687B617B6803F470234FEA1343BB6070
:103AA0007B684FEA03434FEA13433B617B6803F4AF
:103AB0004013B3F5401F10D17B6923F070637B6125
:103AC0004FF00003C4F201034FF00002C4F2010200
:103AD000526822F070625A6026E07B6803F480131B
:103AE000002B10D0BB684FF0030202FA03F3FB6017
:103AF000FB686FEA03037A6913407B617B6943F0DB
:103B000070637B6110E07B684FEA53534FEA031305
:103B10003A6902FA03F36FEA03037A6913407B619F
:103B20007B6943F070637B61FB78002B0AD07B6874
:103B30004FEA53534FEA03133A6902FA03F37A69DF
:103B400013437B617B68002B06DA4FF00003C4F25D
:103B500001037A69DA6105E04FF00003C4F2010362
:103B60007A695A6007F11C07BD4680BC704700BFE8
:103B700090B484B000AF02460B46FA71BB714FF0AF
:103B80000003FB60BB7903F003034FEA83034FF0AC
:103B90000F0202FA03F3FB604FF00003C4F20103CB
:103BA000BA794FEA9202D2B210464FF00002C4F244
:103BB0000102B9794FEA9101C9B201F1020152F84B
:103BC0002110FA686FEA0202114000F1020243F884
:103BD00022104FF00003C4F20103BA794FEA9202B7
:103BE000D2B210464FF00002C4F20102B9794FEA96
:103BF0009101C9B201F1020152F82110FC79BA79A0
:103C000002F003024FEA820204FA02F2114300F1C9
:103C1000020243F8221007F11007BD4690BC70471E
:103C200080B483B000AF78604FF0DC03C4F220238F
:103C30007A681A6007F10C07BD4680BC704700BF68
:103C400080B400AF4FF48053C4F202034FF48052AB
:103C5000C4F20202126842F001021A604FF480526C
:103C6000C4F202024FF48053C4F2020359684FF0C9
:103C70000003CFF6FF030B4053604FF48053C4F2B0
:103C800002034FF48052C4F20202126822F08472DE
:103C900022F480321A604FF48053C4F202034FF4CE
:103CA0008052C4F20202126822F480221A604FF499
:103CB0008053C4F202034FF48052C4F202025268ED
:103CC00022F4FE025A604FF48053C4F202034FF410
:103CD0001F029A60BD4680BC704700BF80B483B0AD
:103CE00000AF78604FF48053C4F202034FF4805267
:103CF000C4F20202126822F480321A604FF4805338
:103D0000C4F202034FF48052C4F20202126822F499
:103D100080221A607B68B3F5803F03D0B3F5802F13
:103D20000DD019E04FF48053C4F202034FF48052D7
:103D3000C4F20202126842F480321A600DE04FF4BD
:103D40008053C4F202034FF48052C4F2020212689C
:103D500042F4A0221A6000E000BF07F10C07BD4644
:103D600080BC704780B582B000AF4FF000033B606D
:103D70004FF00003FB714FF00003BB714FF03100B7
:103D800000F0CEFB0346BB713B6803F101033B60CF
:103D90003B68B3F5A06F02D0BB79002BEED04FF09B
:103DA000310000F0BDFB0346002B03D04FF00103B0
:103DB000FB7102E04FF00003FB71FB79184607F13D
:103DC0000807BD4680BD00BF80B485B000AF034684
:103DD000FB714FF00003FB604FF48053C4F2020309
:103DE0001B68FB60FB6823F0F803FB60FB794FEA7C
:103DF000C303FA681343FB604FF48053C4F2020319
:103E0000FA681A6007F11407BD4680BC704700BF0E
:103E100080B483B000AF0346FB714FF00003C4F2DF
:103E20004223FA791A6007F10C07BD4680BC70473F
:103E300080B485B000AF786039604FF00003FB605C
:103E40004FF48053C4F202035B68FB60FB6823F409
:103E50007C13FB607A683B681343FA681343FB608A
:103E60004FF48053C4F20203FA685A6007F1140752
:103E7000BD4680BC704700BF80B483B000AF03462E
:103E8000FB714FF06003C4F24223FA791A6007F124
:103E90000C07BD4680BC704780B485B000AF786029
:103EA0004FF00003FB604FF48053C4F202035B68E1
:103EB000FB60FB6823F00303FB60FA687B68134335
:103EC000FB604FF48053C4F20203FA685A6007F1B2
:103ED0001407BD4680BC704780B400AF4FF48053D8
:103EE000C4F202035B68DBB203F00C03DBB21846DA
:103EF000BD4680BC704700BF80B485B000AF78601D
:103F00004FF00003FB604FF48053C4F202035B6880
:103F1000FB60FB6823F0F003FB60FA687B681343E7
:103F2000FB604FF48053C4F20203FA685A6007F151
:103F30001407BD4680BC704780B485B000AF786080
:103F40004FF00003FB604FF48053C4F202035B6840
:103F5000FB60FB6823F4E063FB60FA687B68134353
:103F6000FB604FF48053C4F20203FA685A6007F111
:103F70001407BD4680BC704780B485B000AF786040
:103F80004FF00003FB604FF48053C4F202035B6800
:103F9000FB60FB6823F46053FB607B684FEAC3035C
:103FA000FA681343FB604FF48053C4F20203FA68CB
:103FB0005A6007F11407BD4680BC704780B483B0D7
:103FC00000AF02460B46FA71BB71BB79002B0ED0D5
:103FD00041F20903C4F2020341F20902C4F20202EF
:103FE0001278D1B2FA790A43D2B21A7010E041F2D3
:103FF0000903C4F2020341F20902C4F20202127878
:10400000D1B2FA796FEA0202D2B20A40D2B21A7081
:1040100007F10C07BD4680BC704700BF80B483B079
:1040200000AF78604FF0D803C4F242237A681A6078
:1040300007F10C07BD4680BC704700BF80B485B057
:1040400000AF78604FF00003FB604FF48053C4F280
:1040500002035B68FB60FB6823F44043FB60FA6883
:104060007B681343FB604FF48053C4F20203FA6889
:104070005A6007F11407BD4680BC704780B483B016
:1040800000AF0346FB714FF48153C4F202034FF0BB
:1040900000021A704FF48153C4F202034FF0000281
:1040A0001A70FB79012B02D0042B08D00FE04FF4DB
:1040B0008153C4F202034FF001021A7008E04FF47A
:1040C0008153C4F202034FF005021A7000E000BFF2
:1040D00007F10C07BD4680BC704700BF80B483B0B9
:1040E00000AF0346FB714FF49063C4F24223FA79A8
:1040F0001A6007F10C07BD4680BC704780B483B0DE
:1041000000AF78604FF48053C4F202034FF4805242
:10411000C4F20202116A7A680A431A6207F10C07B4
:10412000BD4680BC704700BF80B483B000AF03467B
:10413000FB7140F23C43C4F24223FA791A6007F162
:104140000C07BD4680BC704780B487B000AF786074
:104150004FF000037B614FF000033B614FF0000321
:10416000FB604FF00003BB604FF48053C4F20203C6
:104170005B6803F00C037B617B69042B0AD0082B7E
:104180000FD0002B4DD17A684FF49053C0F27A03D0
:1041900013604DE07A684FF49053C0F27A031360D5
:1041A00046E04FF48053C4F202035B6803F47013DB
:1041B0003B614FF48053C4F202035B6803F4803325
:1041C000FB603B694FEA934303F102033B61FB68E9
:1041D000002B09D13A694FF41063C0F23D0303FB91
:1041E00002F27B681A6023E04FF48053C4F20203AA
:1041F0005B6803F40033002B09D03A694FF4106375
:10420000C0F23D0303FB02F27B681A6010E03A69DA
:104210004FF49053C0F27A0303FB02F27B681A60FA
:1042200006E07A684FF49053C0F27A03136000BF3F
:104230004FF48053C4F202035B6803F0F0037B6128
:104240007B694FEA13137B6140F21013C2F2000343
:104250007A699B181B78DBB2BB607B681A68BB6805
:1042600022FA03F27B685A604FF48053C4F20203CF
:104270005B6803F4E0637B617B694FEA13237B6136
:1042800040F21013C2F200037A699B181B78DBB26C
:10429000BB607B685A68BB6822FA03F27B689A604D
:1042A0004FF48053C4F202035B6803F460537B61F4
:1042B0007B694FEAD3237B6140F21013C2F2000303
:1042C0007A699B181B78DBB2BB607B685A68BB6855
:1042D00022FA03F27B68DA604FF48053C4F20203DF
:1042E0005B6803F440437B617B694FEA93337B61F6
:1042F00040F22013C2F200037A699B181B78DBB2EC
:10430000BB607B68DA68BB68B2FBF3F27B681A615A
:1043100007F11C07BD4680BC704700BF80B483B066
:1043200000AF78600B46FB70FB78002B0CD04FF48D
:104330008053C4F202034FF48052C4F20202516966
:104340007A680A435A610DE04FF48053C4F20203C5
:104350004FF48052C4F2020251697A686FEA020295
:104360000A405A6107F10C07BD4680BC704700BF88
:1043700080B483B000AF78600B46FB70FB78002BF5
:104380000CD04FF48053C4F202034FF48052C4F2B5
:10439000020291697A680A439A610DE04FF48053F2
:1043A000C4F202034FF48052C4F2020291697A68A7
:1043B0006FEA02020A409A6107F10C07BD4680BC11
:1043C000704700BF80B483B000AF78600B46FB70CD
:1043D000FB78002B0CD04FF48053C4F202034FF44F
:1043E0008052C4F20202D1697A680A43DA610DE0B0
:1043F0004FF48053C4F202034FF48052C4F202021D
:10440000D1697A686FEA02020A40DA6107F10C07A3
:10441000BD4680BC704700BF80B483B000AF7860F9
:104420000B46FB70FB78002B0CD04FF48053C4F28A
:1044300002034FF48052C4F20202D1687A680A4340
:10444000DA600DE04FF48053C4F202034FF480525F
:10445000C4F20202D1687A686FEA02020A40DA60A6
:1044600007F10C07BD4680BC704700BF80B483B025
:1044700000AF78600B46FB70FB78002B0CD04FF43C
:104480008053C4F202034FF48052C4F20202116955
:104490007A680A431A610DE04FF48053C4F20203B4
:1044A0004FF48052C4F2020211697A686FEA020284
:1044B0000A401A6107F10C07BD4680BC704700BF77
:1044C00080B483B000AF0346FB714FF48863C4F23D
:1044D0004223FA791A6007F10C07BD4680BC704789
:1044E00080B483B000AF0346FB714FF04C03C4F2BD
:1044F0004223FA791A6007F10C07BD4680BC704769
:1045000080B483B000AF0346FB7141F20703C4F2ED
:104510000203FA791A7007F10C07BD4680BC704798
:1045200080B487B000AF0346FB714FF00003FB601F
:104530004FF000037B614FF00003FB74FB794FEAFF
:104540005313DBB2FB60FB68012B06D14FF48053A1
:10455000C4F202031B687B610FE0FB68022B06D1EB
:104560004FF48053C4F202031B6A7B6105E04FF4F1
:104570008053C4F202035B6A7B61FB7903F01F0383
:10458000FB60FB687A6922FA03F303F00103002B56
:1045900003D04FF00103FB7402E04FF00003FB7403
:1045A000FB7C184607F11C07BD4680BC704700BF66
:1045B00080B400AF4FF48053C4F202034FF4805232
:1045C000C4F20202526A42F080725A62BD4680BC56
:1045D000704700BF80B485B000AF0346FB714FF059
:1045E0000003FB734FF48053C4F202039A68FB7913
:1045F0001340002B03D04FF00103FB7302E04FF098
:104600000003FB73FB7B184607F11407BD4680BC13
:10461000704700BF80B483B000AF0346FB7141F226
:104620000A03C4F20203FA791A7007F10C07BD46B7
:1046300080BC704780B582B000AF78607A684FF474
:104640003053C4F201039A420CD14FF400604FF092
:104650000101FFF7E1FE4FF400604FF00001FFF7AA
:10466000DBFE3BE17B68B3F1804F0CD14FF00100E2
:104670004FF00101FFF7FAFE4FF001004FF000018B
:10468000FFF7F4FE2AE17A684FF48063C4F2000376
:104690009A420CD14FF002004FF00101FFF7E6FE05
:1046A0004FF002004FF00001FFF7E0FE16E17A68DC
:1046B0004FF40063C4F200039A420CD14FF004009F
:1046C0004FF00101FFF7D2FE4FF004004FF0000160
:1046D000FFF7CCFE02E17A684FF44063C4F20003B6
:1046E0009A420CD14FF008004FF00101FFF7BEFED7
:1046F0004FF008004FF00001FFF7B8FEEEE07A68D7
:104700004FF48053C4F200039A420CD14FF01000D2
:104710004FF00101FFF7AAFE4FF010004FF000012B
:10472000FFF7A4FEDAE07A684FF4A053C4F2000366
:104730009A420CD14FF020004FF00101FFF796FE96
:104740004FF020004FF00001FFF790FEC6E07A68BE
:104750004FF45053C4F201039A420CD14FF400506D
:104760004FF00101FFF758FE4FF400504FF00001E9
:10477000FFF752FEB2E07A684FF49843C4F20103A7
:104780009A420CD14FF400204FF00101FFF744FE94
:104790004FF400204FF00001FFF73EFE9EE07A68E4
:1047A0004FF4A043C4F201039A420CD14FF480109D
:1047B0004FF00101FFF730FE4FF480104FF0000181
:1047C000FFF72AFE8AE07A684FF4A843C4F2010397
:1047D0009A420CD14FF400104FF00101FFF71CFE7C
:1047E0004FF400104FF00001FFF716FE76E07A68F4
:1047F0004FF4C053C4F200039A420CD14FF0400072
:104800004FF00101FFF732FE4FF040004FF0000182
:10481000FFF72CFE62E07A684FF4E053C4F2000325
:104820009A420CD14FF080004FF00101FFF71EFEBD
:104830004FF080004FF00001FFF718FE4EE07A685D
:104840004FF40053C4F200039A420CD14FF480702D
:104850004FF00101FFF70AFE4FF480704FF00001A6
:10486000FFF704FE3AE07A684FF48043C4F2010394
:104870009A420CD14FF480304FF00101FFF7CCFD8C
:104880004FF480304FF00001FFF7C6FD26E07A6854
:104890004FF48843C4F201039A420CD14FF4003024
:1048A0004FF00101FFF7B8FD4FF400304FF0000169
:1048B000FFF7B2FD12E07A684FF49043C4F20103AF
:1048C0009A420BD14FF480204FF00101FFF7A4FD75
:1048D0004FF480204FF00001FFF79EFD07F108071D
:1048E000BD4680BD80B485B000AF786039604FF0C0
:1048F0000003FB817B681B88FB817A684FF430538F
:10490000C4F201039A421FD07A684FF45053C4F2A4
:1049100001039A4218D07B68B3F1804F14D07A68B3
:104920004FF48063C4F200039A420DD07A684FF4CA
:104930000063C4F200039A4206D07A684FF44063E1
:10494000C4F200039A4208D1FB8923F07003FB8173
:104950003B685A88FB891343FB817A684FF4805384
:10496000C4F200039A420FD07A684FF4A053C4F205
:1049700000039A4208D0FB8923F44073FB813B6813
:10498000DA88FB891343FB817B68FA891A803B68CC
:104990009A887B689A853B681A887B681A857A684A
:1049A0004FF43053C4F201039A421BD07A684FF49B
:1049B0005053C4F201039A4214D07A684FF48043F2
:1049C000C4F201039A420DD07A684FF48843C4F2CE
:1049D00001039A4206D07A684FF49043C4F201036F
:1049E0009A4204D13B681B7A1A467B681A867B6818
:1049F0004FF001029A8207F11407BD4680BC704750
:104A000080B485B000AF786039604FF000037B81DF
:104A10004FF00003FB814FF00003BB817B681B8CD0
:104A20009BB223F001039AB27B681A847B681B8CCB
:104A3000FB817B689B88BB817B681B8B7B817B892F
:104A400023F070037B817B8923F003037B813B6828
:104A50001A887B8913437B81FB8923F00203FB8146
:104A60003B681A89FB891343FB813B685A88FB89A1
:104A70001343FB817A684FF43053C4F201039A4226
:104A80001BD07A684FF45053C4F201039A4214D0F9
:104A90007A684FF48043C4F201039A420DD07A68D9
:104AA0004FF48843C4F201039A4206D07A684FF467
:104AB0009043C4F201039A4223D1FB8923F00803F7
:104AC000FB813B685A89FB891343FB81FB8923F0F7
:104AD0000403FB813B689A88FB891343FB81BB89F4
:104AE00023F48073BB81BB8923F40073BB813B68D3
:104AF0009A89BB891343BB813B68DA89BB8913431D
:104B0000BB817B68BA899A807B687A891A833B6803
:104B1000DA887B689A867B68FA891A8407F1140719
:104B2000BD4680BC704700BF80B485B000AF7860E0
:104B300039604FF000037B814FF00003FB814FF0A1
:104B40000003BB817B681B8C9BB223F010039AB2DD
:104B50007B681A847B681B8CFB817B689B88BB818C
:104B60007B681B8B7B817B8923F4E0437B817B8982
:104B700023F440737B813B681B884FEA03239AB27E
:104B80007B8913437B81FB8923F02003FB813B68F6
:104B90001B894FEA03139AB2FB891343FB813B68DD
:104BA0005B884FEA03139AB2FB891343FB817A684F
:104BB0004FF43053C4F201039A4206D07A684FF49E
:104BC0005053C4F201039A422FD1FB8923F0800392
:104BD000FB813B685B894FEA03139AB2FB8913435D
:104BE000FB81FB8923F04003FB813B689B884FEAF4
:104BF00003139AB2FB891343FB81BB8923F48063BF
:104C0000BB81BB8923F40063BB813B689B894FEA6E
:104C100083039AB2BB891343BB813B68DB894FEAAC
:104C200083039AB2BB891343BB817B68BA899A809C
:104C30007B687A891A833B68DA887B681A877B6885
:104C4000FA891A8407F11407BD4680BC704700BF7B
:104C500080B485B000AF786039604FF000037B818D
:104C60004FF00003FB814FF00003BB817B681B8C7E
:104C70009BB223F480739AB27B681A847B681B8C86
:104C8000FB817B689B88BB817B689B8B7B817B895D
:104C900023F070037B817B8923F003037B813B68D6
:104CA0001A887B8913437B81FB8923F40073FB8182
:104CB0003B681B894FEA03239AB2FB891343FB81AC
:104CC0003B685B884FEA03239AB2FB891343FB815D
:104CD0007A684FF43053C4F201039A4206D07A68DE
:104CE0004FF45053C4F201039A422FD1FB8923F4AD
:104CF0000063FB813B685B894FEA03239AB2FB891F
:104D00001343FB81FB8923F48063FB813B689B8811
:104D10004FEA03239AB2FB891343FB81BB8923F437
:104D20008053BB81BB8923F40053BB813B689B89C3
:104D30004FEA03139AB2BB891343BB813B68DB89FB
:104D40004FEA03139AB2BB891343BB817B68BA89CC
:104D50009A807B687A899A833B68DA887B689A872D
:104D60007B68FA891A8407F11407BD4680BC704736
:104D700080B485B000AF786039604FF00003BB812C
:104D80004FF000037B814FF00003FB817B681B8C9D
:104D90009BB223F480539AB27B681A847B681B8C85
:104DA0007B817B689B88FB817B689B8BBB81BB89FC
:104DB00023F4E043BB81BB8923F44073BB813B6890
:104DC0001B884FEA03239AB2BB891343BB817B89BB
:104DD00023F400537B813B681B894FEA03339AB26B
:104DE0007B8913437B813B685B884FEA03339AB22C
:104DF0007B8913437B817A684FF43053C4F20103FB
:104E00009A4206D07A684FF45053C4F201039A4292
:104E10000BD1FB8923F48043FB813B689B894FEADC
:104E200083139AB2FB891343FB817B68FA899A80CA
:104E30007B68BA899A833B68DA887B68A3F840204C
:104E40007B687A891A8407F11407BD4680BC7047D5
:104E500080B582B000AF786039603B681B88002B5A
:104E60000FD13B6859883B689A883B681B897868F2
:104E700001F0D4F93B68DB887868194601F076F8D0
:104E800036E03B681B88042B0FD13B6859883B6890
:104E90009A883B681B89786801F032FA3B68DB88A6
:104EA0007868194601F07EF822E03B681B88082BE1
:104EB0000FD13B6859883B689A883B681B897868A2
:104EC00001F0A0FA3B68DB887868194601F088F8A1
:104ED0000EE03B6859883B689A883B681B89786874
:104EE00001F00AFB3B68DB887868194601F094F80A
:104EF00007F10807BD4680BD80B584B000AF78607B
:104F000039604FF00003FB814FF00103BB813B6828
:104F10005B88002B03D14FF00203FB8102E04FF0CE
:104F20000003FB813B689B88012B03D14FF00203F8
:104F3000BB8102E04FF00103BB813B681B88002B63
:104F40001CD13B6859883B689A883B681B89786804
:104F500001F064F93B68DB887868194601F006F8CF
:104F60003B681B89F989BA89786801F0C9F93B68FF
:104F7000DB887868194601F015F81BE03B68598812
:104F80003B689A883B681B89786801F0B9F93B68EF
:104F9000DB887868194601F005F83B681B89F989B8
:104FA000BA89786801F03AF93B68DB887868194675
:104FB00000F0DCFF07F11007BD4680BD80B483B070
:104FC00000AF786039603B681A883B685B881343A0
:104FD0009AB23B689B8813439AB23B68DB881343C1
:104FE0009AB23B681B8913439AB23B685B891343AF
:104FF0009AB23B689B8913439AB27B68A3F844201A
:1050000007F10C07BD4680BC704700BF80B483B079
:1050100000AF78607B684FF6FF729A807B684FF034
:1050200000021A807B684FF00002DA807B684FF044
:1050300000025A807B684FF000021A7207F10C07D9
:10504000BD4680BC704700BF80B483B000AF7860BD
:105050007B684FF000021A807B684FF000025A8094
:105060007B684FF000029A807B684FF00002DA8084
:105070007B684FF000021A817B684FF000025A8172
:105080007B684FF000029A817B684FF00002DA8162
:1050900007F10C07BD4680BC704700BF80B483B0E9
:1050A00000AF78607B684FF000021A807B684FF099
:1050B00000025A807B684FF001029A807B684FF0B3
:1050C0000002DA807B684FF000021A8107F10C07BA
:1050D000BD4680BC704700BF80B483B000AF78602D
:1050E0007B684FF000021A807B684FF000025A8004
:1050F0007B684FF000029A807B684FF00002DA80F4
:105100007B684FF000021A817B684FF000025A81E1
:105110007B684FF000029A8107F10C07BD4680BC06
:10512000704700BF80B483B000AF78600B46FB705F
:10513000FB78002B08D07B681B889BB243F00103EF
:105140009AB27B681A8007E07B681B889BB223F0C9
:1051500001039AB27B681A8007F10C07BD4680BC38
:10516000704700BF80B483B000AF78600B46FB701F
:10517000FB78002B0CD07B68B3F844309BB26FEA0D
:1051800043436FEA53439AB27B68A3F844200BE091
:105190007B68B3F844309BB24FEA43434FEA534332
:1051A0009AB27B68A3F8442007F10C07BD4680BC87
:1051B000704700BF80B483B000AF786013460A46E2
:1051C0007A807B707B78002B08D07B689B899AB2B1
:1051D0007B8813439AB27B689A810AE07B689B893B
:1051E0009AB27B886FEA03039BB213409AB27B6842
:1051F0009A8107F10C07BD4680BC704780B483B02C
:1052000000AF78600B467B807B687A889A8207F1D2
:105210000C07BD4680BC704780B483B000AF786097
:1052200013460A467A803B807A883B8813439AB2B9
:105230007B68A3F8482007F10C07BD4680BC704787
:1052400080B483B000AF786013460A467A807B70E2
:105250007B78002B08D07B689B899AB27B881343AC
:105260009AB27B689A810AE07B689B899AB27B88B4
:105270006FEA03039BB213409AB27B689A8107F1ED
:105280000C07BD4680BC704780B483B000AF786027
:105290007B681B899BB223F007039AB27B681A8153
:1052A00007F10C07BD4680BC704700BF80B582B0D7
:1052B00000AF78600B467B807B887868194600F0E9
:1052C000D3F87B681B899BB243F007039AB27B68D3
:1052D0001A8107F10807BD4680BD00BF80B584B0C4
:1052E00000AFF86079813A81FB807B89602B08D11F
:1052F0003A89FB88F86811464FF0010201F000F886
:1053000007E03A89FB88F86811464FF0010200F087
:1053100085FF7B89F868194600F0A6F8FB681B89B1
:105320009BB243F007039AB2FB681A8107F110079A
:10533000BD4680BD80B586B000AFF86079813A8106
:10534000FB804FF00003FB8279893A89FB88F8687B
:1053500000F034F8FB681B89FB82FB8A23F007030B
:10536000FB82FB8A43F00703FB82FB8A23F0700376
:10537000FB82FB8A43F07003FB82FB68FA8A1A8186
:1053800007F11807BD4680BD80B584B000AFF86056
:1053900079813A81FB8079893A89FB88F86800F045
:1053A0000DF8FB681B899BB243F480439AB2FB68FB
:1053B0001A8107F11007BD4680BD00BF80B487B0D9
:1053C00000AFF86079813A81FB804FF00003FB82E7
:1053D000FB681B89FB82FB8ADBB2FB82FB884FEAFE
:1053E00003239AB23B8913439AB27B8913439AB23F
:1053F000FB8A1343FB82FB68FA8A1A8107F11C07B8
:10540000BD4680BC704700BF80B483B000AF7860F9
:1054100013460A467A803B807B687A881A857B68C7
:105420003A889A8207F10C07BD4680BC704700BFDE
:1054300080B485B000AF78600B467B804FF00003EE
:10544000FB817B681B88FB81FB8923F07003FB8158
:10545000FA897B881343FB817B68FA891A8007F1FC
:105460001407BD4680BC704780B485B000AF78603B
:105470000B467B804FF00003FB817B681B89FB811F
:10548000FB8923F07003FB81FA897B881343FB813E
:105490007B68FA891A8107F11407BD4680BC704702
:1054A00080B487B000AFF86079813A81FB804FF01B
:1054B0000003FB824FF00003BB824FF000037B82AE
:1054C000FB681B89FB82FB681B8BBB82FB681B8C08
:1054D0007B82FB8A23F00703FB82FA8A7B891343D2
:1054E000FB82BB8A23F4407323F00303BB82BB8A95
:1054F00043F4807343F00103BB827B8A23F02203D1
:105500007B82FB884FEA03139AB23B8913439AB21A
:105510007B8A13437B82FB68FA8A1A81FB68BA8A0A
:105520001A83FB687A8A1A8407F11C07BD4680BC7F
:10553000704700BF80B485B000AF78600B467B80B9
:105540004FF00003FB817B681B8BFB81FB8923F001
:105550007003FB81FA897B881343FB817B68FA899E
:105560001A8307F11407BD4680BC704780B485B02C
:1055700000AF78600B467B804FF00003FB817B68B7
:105580001B8BFB81FB8923F4E043FB817B884FEA83
:1055900003239AB2FB891343FB817B68FA891A8340
:1055A00007F11407BD4680BC704700BF80B485B0CA
:1055B00000AF78600B467B804FF00003FB817B6877
:1055C0009B8BFB81FB8923F07003FB81FA897B882D
:1055D0001343FB817B68FA899A8307F11407BD4660
:1055E00080BC704780B485B000AF78600B467B808C
:1055F0004FF00003FB817B689B8BFB81FB8923F4CD
:10560000E043FB817B884FEA03239AB2FB89134373
:10561000FB817B68FA899A8307F11407BD4680BC39
:10562000704700BF80B483B000AF78600B46FB705A
:10563000FB78002B08D07B681B889BB243F080036B
:105640009AB27B681A8007E07B681B889BB223F0C4
:1056500080039AB27B681A8007F10C07BD4680BCB4
:10566000704700BF80B483B000AF78600B46FB701A
:10567000FB78002B08D07B689B889BB243F0040327
:105680009AB27B689A8007E07B689B889BB223F084
:1056900004039AB27B689A8007F10C07BD4680BC70
:1056A000704700BF80B483B000AF78600B46FB70DA
:1056B000FB78002B08D07B689B889BB243F00803E3
:1056C0009AB27B689A8007E07B689B889BB223F044
:1056D00008039AB27B689A8007F10C07BD4680BC2C
:1056E000704700BF80B483B000AF78600B46FB709A
:1056F000FB78002B08D07B689B889BB243F00103AA
:105700009AB27B689A8007E07B689B889BB223F003
:1057100001039AB27B689A8007F10C07BD4680BCF2
:10572000704700BF80B485B000AF78600B467B80C7
:105730004FF00003FB817B681B8BFB81FB8923F00F
:105740000803FB81FA897B881343FB817B68FA8914
:105750001A8307F11407BD4680BC704780B485B03A
:1057600000AF78600B467B804FF00003FB817B68C5
:105770001B8BFB81FB8923F40063FB817B884FEA51
:1057800003239AB2FB891343FB817B68FA891A834E
:1057900007F11407BD4680BC704700BF80B485B0D8
:1057A00000AF78600B467B804FF00003FB817B6885
:1057B0009B8BFB81FB8923F00803FB81FA897B88A3
:1057C0001343FB817B68FA899A8307F11407BD466E
:1057D00080BC704780B485B000AF78600B467B809A
:1057E0004FF00003FB817B689B8BFB81FB8923F4DB
:1057F0000063FB817B884FEA03239AB2FB89134342
:10580000FB817B68FA899A8307F11407BD4680BC47
:10581000704700BF80B485B000AF78600B467B80D6
:105820004FF00003FB817B681B8BFB81FB8923F01E
:105830000403FB81FA897B881343FB817B68FA8927
:105840001A8307F11407BD4680BC704780B485B049
:1058500000AF78600B467B804FF00003FB817B68D4
:105860001B8BFB81FB8923F48063FB817B884FEAE0
:1058700003239AB2FB891343FB817B68FA891A835D
:1058800007F11407BD4680BC704700BF80B485B0E7
:1058900000AF78600B467B804FF00003FB817B6894
:1058A0009B8BFB81FB8923F00403FB81FA897B88B6
:1058B0001343FB817B68FA899A8307F11407BD467D
:1058C00080BC704780B485B000AF78600B467B80A9
:1058D0004FF00003FB817B689B8BFB81FB8923F4EA
:1058E0008063FB817B884FEA03239AB2FB891343D1
:1058F000FB817B68FA899A8307F11407BD4680BC57
:10590000704700BF80B485B000AF78600B467B80E5
:105910004FF00003FB817B681B8BFB81FB8923F02D
:105920008003FB81FA897B881343FB817B68FA89BA
:105930001A8307F11407BD4680BC704780B485B058
:1059400000AF78600B467B804FF00003FB817B68E3
:105950001B8BFB81FB894FEA43434FEA5343FB8197
:105960007B884FEA03239AB2FB891343FB817B6850
:10597000FA891A8307F11407BD4680BC704700BF3F
:1059800080B485B000AF78600B467B804FF0000399
:10599000FB817B689B8BFB81FB8923F08003FB8170
:1059A000FA897B881343FB817B68FA899A8307F124
:1059B0001407BD4680BC704780B485B000AF7860E6
:1059C0000B467B804FF00003FB817B689B8BFB8148
:1059D000FB894FEA43434FEA5343FB817B884FEAFD
:1059E00003239AB2FB891343FB817B68FA899A836C
:1059F00007F11407BD4680BC704700BF80B485B076
:105A000000AF78600B467B804FF00003FB817B6822
:105A10001B8CFB81FB8923F00203FB81FA897B88C5
:105A20001343FB817B68FA891A8407F11407BD468A
:105A300080BC704780B485B000AF78600B467B8037
:105A40004FF00003FB817B681B8CFB81FB8923F0FB
:105A50000803FB81FA897B881343FB817B68FA8901
:105A60001A8407F11407BD4680BC704780B485B026
:105A700000AF78600B467B804FF00003FB817B68B2
:105A80001B8CFB81FB8923F02003FB817B884FEA81
:105A900003139AB2FB891343FB817B68FA891A844A
:105AA00007F11407BD4680BC704700BF80B485B0C5
:105AB00000AF78600B467B804FF00003FB817B6872
:105AC0001B8CFB81FB8923F08003FB817B884FEAE1
:105AD00003139AB2FB891343FB817B68FA891A840A
